{
	"data": {
		"bytecode": {
			"linkReferences": {},
			"object": "60806040523480156200001157600080fd5b506040518060400160405280600a81526020017f4372616674546f6b656e000000000000000000000000000000000000000000008152506040518060400160405280600281526020017f435400000000000000000000000000000000000000000000000000000000000081525081600390816200008f9190620004d6565b508060049081620000a19190620004d6565b505050620000e433620000b9620000ea60201b60201c565b60ff16600a620000ca919062000740565b6064620000d8919062000791565b620000f360201b60201c565b620008c8565b60006012905090565b600073ffffffffffffffffffffffffffffffffffffffff168273ffffffffffffffffffffffffffffffffffffffff160362000165576040517f08c379a00000000000000000000000000000000000000000000000000000000081526004016200015c906200083d565b60405180910390fd5b62000179600083836200025760201b60201c565b80600260008282546200018d91906200085f565b92505081905550806000808473ffffffffffffffffffffffffffffffffffffffff1673ffffffffffffffffffffffffffffffffffffffff1681526020019081526020016000206000828254620001e491906200085f565b925050819055508173ffffffffffffffffffffffffffffffffffffffff16600073ffffffffffffffffffffffffffffffffffffffff167fddf252ad1be2c89b69c2b068fc378daa952ba7f163c4a11628f55a4df523b3ef836040516200024b9190620008ab565b60405180910390a35050565b505050565b600081519050919050565b7f4e487b7100000000000000000000000000000000000000000000000000000000600052604160045260246000fd5b7f4e487b7100000000000000000000000000000000000000000000000000000000600052602260045260246000fd5b60006002820490506001821680620002de57607f821691505b602082108103620002f457620002f362000296565b5b50919050565b60008190508160005260206000209050919050565b60006020601f8301049050919050565b600082821b905092915050565b6000600883026200035e7fffffffffffffffffffffffffffffffffffffffffffffffffffffffffffffffff826200031f565b6200036a86836200031f565b95508019841693508086168417925050509392505050565b6000819050919050565b6000819050919050565b6000620003b7620003b1620003ab8462000382565b6200038c565b62000382565b9050919050565b6000819050919050565b620003d38362000396565b620003eb620003e282620003be565b8484546200032c565b825550505050565b600090565b62000402620003f3565b6200040f818484620003c8565b505050565b5b8181101562000437576200042b600082620003f8565b60018101905062000415565b5050565b601f82111562000486576200045081620002fa565b6200045b846200030f565b810160208510156200046b578190505b620004836200047a856200030f565b83018262000414565b50505b505050565b600082821c905092915050565b6000620004ab600019846008026200048b565b1980831691505092915050565b6000620004c6838362000498565b9150826002028217905092915050565b620004e1826200025c565b67ffffffffffffffff811115620004fd57620004fc62000267565b5b620005098254620002c5565b620005168282856200043b565b600060209050601f8311600181146200054e576000841562000539578287015190505b620005458582620004b8565b865550620005b5565b601f1984166200055e86620002fa565b60005b82811015620005885784890151825560018201915060208501945060208101905062000561565b86831015620005a85784890151620005a4601f89168262000498565b8355505b6001600288020188555050505b505050505050565b7f4e487b7100000000000000000000000000000000000000000000000000000000600052601160045260246000fd5b60008160011c9050919050565b6000808291508390505b60018511156200064b57808604811115620006235762000622620005bd565b5b6001851615620006335780820291505b80810290506200064385620005ec565b945062000603565b94509492505050565b60008262000666576001905062000739565b8162000676576000905062000739565b81600181146200068f57600281146200069a57620006d0565b600191505062000739565b60ff841115620006af57620006ae620005bd565b5b8360020a915084821115620006c957620006c8620005bd565b5b5062000739565b5060208310610133831016604e8410600b84101617156200070a5782820a905083811115620007045762000703620005bd565b5b62000739565b620007198484846001620005f9565b92509050818404811115620007335762000732620005bd565b5b81810290505b9392505050565b60006200074d8262000382565b91506200075a8362000382565b9250620007897fffffffffffffffffffffffffffffffffffffffffffffffffffffffffffffffff848462000654565b905092915050565b60006200079e8262000382565b9150620007ab8362000382565b9250828202620007bb8162000382565b91508282048414831517620007d557620007d4620005bd565b5b5092915050565b600082825260208201905092915050565b7f45524332303a206d696e7420746f20746865207a65726f206164647265737300600082015250565b600062000825601f83620007dc565b91506200083282620007ed565b602082019050919050565b60006020820190508181036000830152620008588162000816565b9050919050565b60006200086c8262000382565b9150620008798362000382565b9250828201905080821115620008945762000893620005bd565b5b92915050565b620008a58162000382565b82525050565b6000602082019050620008c260008301846200089a565b92915050565b611e8480620008d86000396000f3fe608060405234801561001057600080fd5b50600436106100ea5760003560e01c806370a082311161008c578063a457c2d711610066578063a457c2d71461025f578063a9059cbb1461028f578063c634d032146102bf578063dd62ed3e146102db576100ea565b806370a08231146101f55780637b47ec1a1461022557806395d89b4114610241576100ea565b806318160ddd116100c857806318160ddd1461015957806323b872dd14610177578063313ce567146101a757806339509351146101c5576100ea565b806306fdde03146100ef578063095ea7b31461010d5780631072cbea1461013d575b600080fd5b6100f761030b565b60405161010491906112de565b60405180910390f35b61012760048036038101906101229190611399565b61039d565b60405161013491906113f4565b60405180910390f35b61015760048036038101906101529190611399565b6103bb565b005b610161610431565b60405161016e919061141e565b60405180910390f35b610191600480360381019061018c9190611439565b61043b565b60405161019e91906113f4565b60405180910390f35b6101af61053c565b6040516101bc91906114a8565b60405180910390f35b6101df60048036038101906101da9190611399565b610545565b6040516101ec91906113f4565b60405180910390f35b61020f600480360381019061020a91906114c3565b6105f1565b60405161021c919061141e565b60405180910390f35b61023f600480360381019061023a91906114f0565b610639565b005b6102496106ac565b60405161025691906112de565b60405180910390f35b61027960048036038101906102749190611399565b61073e565b60405161028691906113f4565b60405180910390f35b6102a960048036038101906102a49190611399565b610832565b6040516102b691906113f4565b60405180910390f35b6102d960048036038101906102d491906114f0565b610850565b005b6102f560048036038101906102f0919061151d565b6108c3565b604051610302919061141e565b60405180910390f35b60606003805461031a9061158c565b80601f01602080910402602001604051908101604052809291908181526020018280546103469061158c565b80156103935780601f1061036857610100808354040283529160200191610393565b820191906000526020600020905b81548152906001019060200180831161037657829003601f168201915b5050505050905090565b60006103b16103aa61094a565b8484610952565b6001905092915050565b60006103c561053c565b60ff16600a6103d4919061171f565b826103df919061176a565b90506103ec338483610b1b565b61042c6040518060400160405280601a81526020017f596f75207472616e73666572656420257320435420746f2025730000000000008152508385610d98565b505050565b6000600254905090565b6000610448848484610b1b565b6000600160008673ffffffffffffffffffffffffffffffffffffffff1673ffffffffffffffffffffffffffffffffffffffff168152602001908152602001600020600061049361094a565b73ffffffffffffffffffffffffffffffffffffffff1673ffffffffffffffffffffffffffffffffffffffff16815260200190815260200160002054905082811015610513576040517f08c379a000000000000000000000000000000000000000000000000000000000815260040161050a9061181e565b60405180910390fd5b6105308561051f61094a565b858461052b919061183e565b610952565b60019150509392505050565b60006012905090565b60006105e761055261094a565b84846001600061056061094a565b73ffffffffffffffffffffffffffffffffffffffff1673ffffffffffffffffffffffffffffffffffffffff16815260200190815260200160002060008873ffffffffffffffffffffffffffffffffffffffff1673ffffffffffffffffffffffffffffffffffffffff168152602001908152602001600020546105e29190611872565b610952565b6001905092915050565b60008060008373ffffffffffffffffffffffffffffffffffffffff1673ffffffffffffffffffffffffffffffffffffffff168152602001908152602001600020549050919050565b600061064361053c565b60ff16600a610652919061171f565b8261065d919061176a565b90506106693382610e37565b6106a86040518060400160405280601581526020017f596f75206275726e656420257320746f6b656e732e00000000000000000000008152508361100a565b5050565b6060600480546106bb9061158c565b80601f01602080910402602001604051908101604052809291908181526020018280546106e79061158c565b80156107345780601f1061070957610100808354040283529160200191610734565b820191906000526020600020905b81548152906001019060200180831161071757829003601f168201915b5050505050905090565b6000806001600061074d61094a565b73ffffffffffffffffffffffffffffffffffffffff1673ffffffffffffffffffffffffffffffffffffffff16815260200190815260200160002060008573ffffffffffffffffffffffffffffffffffffffff1673ffffffffffffffffffffffffffffffffffffffff1681526020019081526020016000205490508281101561080a576040517f08c379a000000000000000000000000000000000000000000000000000000000815260040161080190611918565b60405180910390fd5b61082761081561094a565b858584610822919061183e565b610952565b600191505092915050565b600061084661083f61094a565b8484610b1b565b6001905092915050565b600061085a61053c565b60ff16600a610869919061171f565b82610874919061176a565b905061088033826110a6565b6108bf6040518060400160405280601481526020017f596f75206d696e74656420257320746f6b656e730000000000000000000000008152508361100a565b5050565b6000600160008473ffffffffffffffffffffffffffffffffffffffff1673ffffffffffffffffffffffffffffffffffffffff16815260200190815260200160002060008373ffffffffffffffffffffffffffffffffffffffff1673ffffffffffffffffffffffffffffffffffffffff16815260200190815260200160002054905092915050565b600033905090565b600073ffffffffffffffffffffffffffffffffffffffff168373ffffffffffffffffffffffffffffffffffffffff16036109c1576040517f08c379a00000000000000000000000000000000000000000000000000000000081526004016109b8906119aa565b60405180910390fd5b600073ffffffffffffffffffffffffffffffffffffffff168273ffffffffffffffffffffffffffffffffffffffff1603610a30576040517f08c379a0000000000000000000000000000000000000000000000000000000008152600401610a2790611a3c565b60405180910390fd5b80600160008573ffffffffffffffffffffffffffffffffffffffff1673ffffffffffffffffffffffffffffffffffffffff16815260200190815260200160002060008473ffffffffffffffffffffffffffffffffffffffff1673ffffffffffffffffffffffffffffffffffffffff168152602001908152602001600020819055508173ffffffffffffffffffffffffffffffffffffffff168373ffffffffffffffffffffffffffffffffffffffff167f8c5be1e5ebec7d5bd14f71427d1e84f3dd0314c0f7b2291e5b200ac8c7c3b92583604051610b0e919061141e565b60405180910390a3505050565b600073ffffffffffffffffffffffffffffffffffffffff168373ffffffffffffffffffffffffffffffffffffffff1603610b8a576040517f08c379a0000000000000000000000000000000000000000000000000000000008152600401610b8190611ace565b60405180910390fd5b600073ffffffffffffffffffffffffffffffffffffffff168273ffffffffffffffffffffffffffffffffffffffff1603610bf9576040517f08c379a0000000000000000000000000000000000000000000000000000000008152600401610bf090611b60565b60405180910390fd5b610c048383836111f9565b60008060008573ffffffffffffffffffffffffffffffffffffffff1673ffffffffffffffffffffffffffffffffffffffff16815260200190815260200160002054905081811015610c8a576040517f08c379a0000000000000000000000000000000000000000000000000000000008152600401610c8190611bf2565b60405180910390fd5b8181610c96919061183e565b6000808673ffffffffffffffffffffffffffffffffffffffff1673ffffffffffffffffffffffffffffffffffffffff16815260200190815260200160002081905550816000808573ffffffffffffffffffffffffffffffffffffffff1673ffffffffffffffffffffffffffffffffffffffff1681526020019081526020016000206000828254610d269190611872565b925050819055508273ffffffffffffffffffffffffffffffffffffffff168473ffffffffffffffffffffffffffffffffffffffff167fddf252ad1be2c89b69c2b068fc378daa952ba7f163c4a11628f55a4df523b3ef84604051610d8a919061141e565b60405180910390a350505050565b610e32838383604051602401610db093929190611c21565b6040516020818303038152906040527f1c7ec448000000000000000000000000000000000000000000000000000000007bffffffffffffffffffffffffffffffffffffffffffffffffffffffff19166020820180517bffffffffffffffffffffffffffffffffffffffffffffffffffffffff83818316178352505050506111fe565b505050565b600073ffffffffffffffffffffffffffffffffffffffff168273ffffffffffffffffffffffffffffffffffffffff1603610ea6576040517f08c379a0000000000000000000000000000000000000000000000000000000008152600401610e9d90611cd1565b60405180910390fd5b610eb2826000836111f9565b60008060008473ffffffffffffffffffffffffffffffffffffffff1673ffffffffffffffffffffffffffffffffffffffff16815260200190815260200160002054905081811015610f38576040517f08c379a0000000000000000000000000000000000000000000000000000000008152600401610f2f90611d63565b60405180910390fd5b8181610f44919061183e565b6000808573ffffffffffffffffffffffffffffffffffffffff1673ffffffffffffffffffffffffffffffffffffffff168152602001908152602001600020819055508160026000828254610f98919061183e565b92505081905550600073ffffffffffffffffffffffffffffffffffffffff168373ffffffffffffffffffffffffffffffffffffffff167fddf252ad1be2c89b69c2b068fc378daa952ba7f163c4a11628f55a4df523b3ef84604051610ffd919061141e565b60405180910390a3505050565b6110a28282604051602401611020929190611d83565b6040516020818303038152906040527fb60e72cc000000000000000000000000000000000000000000000000000000007bffffffffffffffffffffffffffffffffffffffffffffffffffffffff19166020820180517bffffffffffffffffffffffffffffffffffffffffffffffffffffffff83818316178352505050506111fe565b5050565b600073ffffffffffffffffffffffffffffffffffffffff168273ffffffffffffffffffffffffffffffffffffffff1603611115576040517f08c379a000000000000000000000000000000000000000000000000000000000815260040161110c90611dff565b60405180910390fd5b611121600083836111f9565b80600260008282546111339190611872565b92505081905550806000808473ffffffffffffffffffffffffffffffffffffffff1673ffffffffffffffffffffffffffffffffffffffff16815260200190815260200160002060008282546111889190611872565b925050819055508173ffffffffffffffffffffffffffffffffffffffff16600073ffffffffffffffffffffffffffffffffffffffff167fddf252ad1be2c89b69c2b068fc378daa952ba7f163c4a11628f55a4df523b3ef836040516111ed919061141e565b60405180910390a35050565b505050565b6112158161120d611218611239565b63ffffffff16565b50565b60006a636f6e736f6c652e6c6f679050600080835160208501845afa505050565b611244819050919050565b61124c611e1f565b565b600081519050919050565b600082825260208201905092915050565b60005b8381101561128857808201518184015260208101905061126d565b60008484015250505050565b6000601f19601f8301169050919050565b60006112b08261124e565b6112ba8185611259565b93506112ca81856020860161126a565b6112d381611294565b840191505092915050565b600060208201905081810360008301526112f881846112a5565b905092915050565b600080fd5b600073ffffffffffffffffffffffffffffffffffffffff82169050919050565b600061133082611305565b9050919050565b61134081611325565b811461134b57600080fd5b50565b60008135905061135d81611337565b92915050565b6000819050919050565b61137681611363565b811461138157600080fd5b50565b6000813590506113938161136d565b92915050565b600080604083850312156113b0576113af611300565b5b60006113be8582860161134e565b92505060206113cf85828601611384565b9150509250929050565b60008115159050919050565b6113ee816113d9565b82525050565b600060208201905061140960008301846113e5565b92915050565b61141881611363565b82525050565b6000602082019050611433600083018461140f565b92915050565b60008060006060848603121561145257611451611300565b5b60006114608682870161134e565b93505060206114718682870161134e565b925050604061148286828701611384565b9150509250925092565b600060ff82169050919050565b6114a28161148c565b82525050565b60006020820190506114bd6000830184611499565b92915050565b6000602082840312156114d9576114d8611300565b5b60006114e78482850161134e565b91505092915050565b60006020828403121561150657611505611300565b5b600061151484828501611384565b91505092915050565b6000806040838503121561153457611533611300565b5b60006115428582860161134e565b92505060206115538582860161134e565b9150509250929050565b7f4e487b7100000000000000000000000000000000000000000000000000000000600052602260045260246000fd5b600060028204905060018216806115a457607f821691505b6020821081036115b7576115b661155d565b5b50919050565b7f4e487b7100000000000000000000000000000000000000000000000000000000600052601160045260246000fd5b60008160011c9050919050565b6000808291508390505b60018511156116435780860481111561161f5761161e6115bd565b5b600185161561162e5780820291505b808102905061163c856115ec565b9450611603565b94509492505050565b60008261165c5760019050611718565b8161166a5760009050611718565b8160018114611680576002811461168a576116b9565b6001915050611718565b60ff84111561169c5761169b6115bd565b5b8360020a9150848211156116b3576116b26115bd565b5b50611718565b5060208310610133831016604e8410600b84101617156116ee5782820a9050838111156116e9576116e86115bd565b5b611718565b6116fb84848460016115f9565b92509050818404811115611712576117116115bd565b5b81810290505b9392505050565b600061172a82611363565b915061173583611363565b92506117627fffffffffffffffffffffffffffffffffffffffffffffffffffffffffffffffff848461164c565b905092915050565b600061177582611363565b915061178083611363565b925082820261178e81611363565b915082820484148315176117a5576117a46115bd565b5b5092915050565b7f45524332303a207472616e7366657220616d6f756e742065786365656473206160008201527f6c6c6f77616e6365000000000000000000000000000000000000000000000000602082015250565b6000611808602883611259565b9150611813826117ac565b604082019050919050565b60006020820190508181036000830152611837816117fb565b9050919050565b600061184982611363565b915061185483611363565b925082820390508181111561186c5761186b6115bd565b5b92915050565b600061187d82611363565b915061188883611363565b92508282019050808211156118a05761189f6115bd565b5b92915050565b7f45524332303a2064656372656173656420616c6c6f77616e63652062656c6f7760008201527f207a65726f000000000000000000000000000000000000000000000000000000602082015250565b6000611902602583611259565b915061190d826118a6565b604082019050919050565b60006020820190508181036000830152611931816118f5565b9050919050565b7f45524332303a20617070726f76652066726f6d20746865207a65726f2061646460008201527f7265737300000000000000000000000000000000000000000000000000000000602082015250565b6000611994602483611259565b915061199f82611938565b604082019050919050565b600060208201905081810360008301526119c381611987565b9050919050565b7f45524332303a20617070726f766520746f20746865207a65726f20616464726560008201527f7373000000000000000000000000000000000000000000000000000000000000602082015250565b6000611a26602283611259565b9150611a31826119ca565b604082019050919050565b60006020820190508181036000830152611a5581611a19565b9050919050565b7f45524332303a207472616e736665722066726f6d20746865207a65726f20616460008201527f6472657373000000000000000000000000000000000000000000000000000000602082015250565b6000611ab8602583611259565b9150611ac382611a5c565b604082019050919050565b60006020820190508181036000830152611ae781611aab565b9050919050565b7f45524332303a207472616e7366657220746f20746865207a65726f206164647260008201527f6573730000000000000000000000000000000000000000000000000000000000602082015250565b6000611b4a602383611259565b9150611b5582611aee565b604082019050919050565b60006020820190508181036000830152611b7981611b3d565b9050919050565b7f45524332303a207472616e7366657220616d6f756e742065786365656473206260008201527f616c616e63650000000000000000000000000000000000000000000000000000602082015250565b6000611bdc602683611259565b9150611be782611b80565b604082019050919050565b60006020820190508181036000830152611c0b81611bcf565b9050919050565b611c1b81611325565b82525050565b60006060820190508181036000830152611c3b81866112a5565b9050611c4a602083018561140f565b611c576040830184611c12565b949350505050565b7f45524332303a206275726e2066726f6d20746865207a65726f2061646472657360008201527f7300000000000000000000000000000000000000000000000000000000000000602082015250565b6000611cbb602183611259565b9150611cc682611c5f565b604082019050919050565b60006020820190508181036000830152611cea81611cae565b9050919050565b7f45524332303a206275726e20616d6f756e7420657863656564732062616c616e60008201527f6365000000000000000000000000000000000000000000000000000000000000602082015250565b6000611d4d602283611259565b9150611d5882611cf1565b604082019050919050565b60006020820190508181036000830152611d7c81611d40565b9050919050565b60006040820190508181036000830152611d9d81856112a5565b9050611dac602083018461140f565b9392505050565b7f45524332303a206d696e7420746f20746865207a65726f206164647265737300600082015250565b6000611de9601f83611259565b9150611df482611db3565b602082019050919050565b60006020820190508181036000830152611e1881611ddc565b9050919050565b7f4e487b7100000000000000000000000000000000000000000000000000000000600052605160045260246000fdfea2646970667358221220b0e0ed4ee09f6b2d9b45d3119f425016ff7ae25f8a530f258021a8a5eec6f19864736f6c63430008120033",
			"opcodes": "PUSH1 0x80 PUSH1 0x40 MSTORE CALLVALUE DUP1 ISZERO PUSH3 0x11 JUMPI PUSH1 0x0 DUP1 REVERT JUMPDEST POP PUSH1 0x40 MLOAD DUP1 PUSH1 0x40 ADD PUSH1 0x40 MSTORE DUP1 PUSH1 0xA DUP2 MSTORE PUSH1 0x20 ADD PUSH32 0x4372616674546F6B656E00000000000000000000000000000000000000000000 DUP2 MSTORE POP PUSH1 0x40 MLOAD DUP1 PUSH1 0x40 ADD PUSH1 0x40 MSTORE DUP1 PUSH1 0x2 DUP2 MSTORE PUSH1 0x20 ADD PUSH32 0x4354000000000000000000000000000000000000000000000000000000000000 DUP2 MSTORE POP DUP2 PUSH1 0x3 SWAP1 DUP2 PUSH3 0x8F SWAP2 SWAP1 PUSH3 0x4D6 JUMP JUMPDEST POP DUP1 PUSH1 0x4 SWAP1 DUP2 PUSH3 0xA1 SWAP2 SWAP1 PUSH3 0x4D6 JUMP JUMPDEST POP POP POP PUSH3 0xE4 CALLER PUSH3 0xB9 PUSH3 0xEA PUSH1 0x20 SHL PUSH1 0x20 SHR JUMP JUMPDEST PUSH1 0xFF AND PUSH1 0xA PUSH3 0xCA SWAP2 SWAP1 PUSH3 0x740 JUMP JUMPDEST PUSH1 0x64 PUSH3 0xD8 SWAP2 SWAP1 PUSH3 0x791 JUMP JUMPDEST PUSH3 0xF3 PUSH1 0x20 SHL PUSH1 0x20 SHR JUMP JUMPDEST PUSH3 0x8C8 JUMP JUMPDEST PUSH1 0x0 PUSH1 0x12 SWAP1 POP SWAP1 JUMP JUMPDEST PUSH1 0x0 PUSH20 0xFFFFFFFFFFFFFFFFFFFFFFFFFFFFFFFFFFFFFFFF AND DUP3 PUSH20 0xFFFFFFFFFFFFFFFFFFFFFFFFFFFFFFFFFFFFFFFF AND SUB PUSH3 0x165 JUMPI PUSH1 0x40 MLOAD PUSH32 0x8C379A000000000000000000000000000000000000000000000000000000000 DUP2 MSTORE PUSH1 0x4 ADD PUSH3 0x15C SWAP1 PUSH3 0x83D JUMP JUMPDEST PUSH1 0x40 MLOAD DUP1 SWAP2 SUB SWAP1 REVERT JUMPDEST PUSH3 0x179 PUSH1 0x0 DUP4 DUP4 PUSH3 0x257 PUSH1 0x20 SHL PUSH1 0x20 SHR JUMP JUMPDEST DUP1 PUSH1 0x2 PUSH1 0x0 DUP3 DUP3 SLOAD PUSH3 0x18D SWAP2 SWAP1 PUSH3 0x85F JUMP JUMPDEST SWAP3 POP POP DUP2 SWAP1 SSTORE POP DUP1 PUSH1 0x0 DUP1 DUP5 PUSH20 0xFFFFFFFFFFFFFFFFFFFFFFFFFFFFFFFFFFFFFFFF AND PUSH20 0xFFFFFFFFFFFFFFFFFFFFFFFFFFFFFFFFFFFFFFFF AND DUP2 MSTORE PUSH1 0x20 ADD SWAP1 DUP2 MSTORE PUSH1 0x20 ADD PUSH1 0x0 KECCAK256 PUSH1 0x0 DUP3 DUP3 SLOAD PUSH3 0x1E4 SWAP2 SWAP1 PUSH3 0x85F JUMP JUMPDEST SWAP3 POP POP DUP2 SWAP1 SSTORE POP DUP2 PUSH20 0xFFFFFFFFFFFFFFFFFFFFFFFFFFFFFFFFFFFFFFFF AND PUSH1 0x0 PUSH20 0xFFFFFFFFFFFFFFFFFFFFFFFFFFFFFFFFFFFFFFFF AND PUSH32 0xDDF252AD1BE2C89B69C2B068FC378DAA952BA7F163C4A11628F55A4DF523B3EF DUP4 PUSH1 0x40 MLOAD PUSH3 0x24B SWAP2 SWAP1 PUSH3 0x8AB JUMP JUMPDEST PUSH1 0x40 MLOAD DUP1 SWAP2 SUB SWAP1 LOG3 POP POP JUMP JUMPDEST POP POP POP JUMP JUMPDEST PUSH1 0x0 DUP2 MLOAD SWAP1 POP SWAP2 SWAP1 POP JUMP JUMPDEST PUSH32 0x4E487B7100000000000000000000000000000000000000000000000000000000 PUSH1 0x0 MSTORE PUSH1 0x41 PUSH1 0x4 MSTORE PUSH1 0x24 PUSH1 0x0 REVERT JUMPDEST PUSH32 0x4E487B7100000000000000000000000000000000000000000000000000000000 PUSH1 0x0 MSTORE PUSH1 0x22 PUSH1 0x4 MSTORE PUSH1 0x24 PUSH1 0x0 REVERT JUMPDEST PUSH1 0x0 PUSH1 0x2 DUP3 DIV SWAP1 POP PUSH1 0x1 DUP3 AND DUP1 PUSH3 0x2DE JUMPI PUSH1 0x7F DUP3 AND SWAP2 POP JUMPDEST PUSH1 0x20 DUP3 LT DUP2 SUB PUSH3 0x2F4 JUMPI PUSH3 0x2F3 PUSH3 0x296 JUMP JUMPDEST JUMPDEST POP SWAP2 SWAP1 POP JUMP JUMPDEST PUSH1 0x0 DUP2 SWAP1 POP DUP2 PUSH1 0x0 MSTORE PUSH1 0x20 PUSH1 0x0 KECCAK256 SWAP1 POP SWAP2 SWAP1 POP JUMP JUMPDEST PUSH1 0x0 PUSH1 0x20 PUSH1 0x1F DUP4 ADD DIV SWAP1 POP SWAP2 SWAP1 POP JUMP JUMPDEST PUSH1 0x0 DUP3 DUP3 SHL SWAP1 POP SWAP3 SWAP2 POP POP JUMP JUMPDEST PUSH1 0x0 PUSH1 0x8 DUP4 MUL PUSH3 0x35E PUSH32 0xFFFFFFFFFFFFFFFFFFFFFFFFFFFFFFFFFFFFFFFFFFFFFFFFFFFFFFFFFFFFFFFF DUP3 PUSH3 0x31F JUMP JUMPDEST PUSH3 0x36A DUP7 DUP4 PUSH3 0x31F JUMP JUMPDEST SWAP6 POP DUP1 NOT DUP5 AND SWAP4 POP DUP1 DUP7 AND DUP5 OR SWAP3 POP POP POP SWAP4 SWAP3 POP POP POP JUMP JUMPDEST PUSH1 0x0 DUP2 SWAP1 POP SWAP2 SWAP1 POP JUMP JUMPDEST PUSH1 0x0 DUP2 SWAP1 POP SWAP2 SWAP1 POP JUMP JUMPDEST PUSH1 0x0 PUSH3 0x3B7 PUSH3 0x3B1 PUSH3 0x3AB DUP5 PUSH3 0x382 JUMP JUMPDEST PUSH3 0x38C JUMP JUMPDEST PUSH3 0x382 JUMP JUMPDEST SWAP1 POP SWAP2 SWAP1 POP JUMP JUMPDEST PUSH1 0x0 DUP2 SWAP1 POP SWAP2 SWAP1 POP JUMP JUMPDEST PUSH3 0x3D3 DUP4 PUSH3 0x396 JUMP JUMPDEST PUSH3 0x3EB PUSH3 0x3E2 DUP3 PUSH3 0x3BE JUMP JUMPDEST DUP5 DUP5 SLOAD PUSH3 0x32C JUMP JUMPDEST DUP3 SSTORE POP POP POP POP JUMP JUMPDEST PUSH1 0x0 SWAP1 JUMP JUMPDEST PUSH3 0x402 PUSH3 0x3F3 JUMP JUMPDEST PUSH3 0x40F DUP2 DUP5 DUP5 PUSH3 0x3C8 JUMP JUMPDEST POP POP POP JUMP JUMPDEST JUMPDEST DUP2 DUP2 LT ISZERO PUSH3 0x437 JUMPI PUSH3 0x42B PUSH1 0x0 DUP3 PUSH3 0x3F8 JUMP JUMPDEST PUSH1 0x1 DUP2 ADD SWAP1 POP PUSH3 0x415 JUMP JUMPDEST POP POP JUMP JUMPDEST PUSH1 0x1F DUP3 GT ISZERO PUSH3 0x486 JUMPI PUSH3 0x450 DUP2 PUSH3 0x2FA JUMP JUMPDEST PUSH3 0x45B DUP5 PUSH3 0x30F JUMP JUMPDEST DUP2 ADD PUSH1 0x20 DUP6 LT ISZERO PUSH3 0x46B JUMPI DUP2 SWAP1 POP JUMPDEST PUSH3 0x483 PUSH3 0x47A DUP6 PUSH3 0x30F JUMP JUMPDEST DUP4 ADD DUP3 PUSH3 0x414 JUMP JUMPDEST POP POP JUMPDEST POP POP POP JUMP JUMPDEST PUSH1 0x0 DUP3 DUP3 SHR SWAP1 POP SWAP3 SWAP2 POP POP JUMP JUMPDEST PUSH1 0x0 PUSH3 0x4AB PUSH1 0x0 NOT DUP5 PUSH1 0x8 MUL PUSH3 0x48B JUMP JUMPDEST NOT DUP1 DUP4 AND SWAP2 POP POP SWAP3 SWAP2 POP POP JUMP JUMPDEST PUSH1 0x0 PUSH3 0x4C6 DUP4 DUP4 PUSH3 0x498 JUMP JUMPDEST SWAP2 POP DUP3 PUSH1 0x2 MUL DUP3 OR SWAP1 POP SWAP3 SWAP2 POP POP JUMP JUMPDEST PUSH3 0x4E1 DUP3 PUSH3 0x25C JUMP JUMPDEST PUSH8 0xFFFFFFFFFFFFFFFF DUP2 GT ISZERO PUSH3 0x4FD JUMPI PUSH3 0x4FC PUSH3 0x267 JUMP JUMPDEST JUMPDEST PUSH3 0x509 DUP3 SLOAD PUSH3 0x2C5 JUMP JUMPDEST PUSH3 0x516 DUP3 DUP3 DUP6 PUSH3 0x43B JUMP JUMPDEST PUSH1 0x0 PUSH1 0x20 SWAP1 POP PUSH1 0x1F DUP4 GT PUSH1 0x1 DUP2 EQ PUSH3 0x54E JUMPI PUSH1 0x0 DUP5 ISZERO PUSH3 0x539 JUMPI DUP3 DUP8 ADD MLOAD SWAP1 POP JUMPDEST PUSH3 0x545 DUP6 DUP3 PUSH3 0x4B8 JUMP JUMPDEST DUP7 SSTORE POP PUSH3 0x5B5 JUMP JUMPDEST PUSH1 0x1F NOT DUP5 AND PUSH3 0x55E DUP7 PUSH3 0x2FA JUMP JUMPDEST PUSH1 0x0 JUMPDEST DUP3 DUP2 LT ISZERO PUSH3 0x588 JUMPI DUP5 DUP10 ADD MLOAD DUP3 SSTORE PUSH1 0x1 DUP3 ADD SWAP2 POP PUSH1 0x20 DUP6 ADD SWAP5 POP PUSH1 0x20 DUP2 ADD SWAP1 POP PUSH3 0x561 JUMP JUMPDEST DUP7 DUP4 LT ISZERO PUSH3 0x5A8 JUMPI DUP5 DUP10 ADD MLOAD PUSH3 0x5A4 PUSH1 0x1F DUP10 AND DUP3 PUSH3 0x498 JUMP JUMPDEST DUP4 SSTORE POP JUMPDEST PUSH1 0x1 PUSH1 0x2 DUP9 MUL ADD DUP9 SSTORE POP POP POP JUMPDEST POP POP POP POP POP POP JUMP JUMPDEST PUSH32 0x4E487B7100000000000000000000000000000000000000000000000000000000 PUSH1 0x0 MSTORE PUSH1 0x11 PUSH1 0x4 MSTORE PUSH1 0x24 PUSH1 0x0 REVERT JUMPDEST PUSH1 0x0 DUP2 PUSH1 0x1 SHR SWAP1 POP SWAP2 SWAP1 POP JUMP JUMPDEST PUSH1 0x0 DUP1 DUP3 SWAP2 POP DUP4 SWAP1 POP JUMPDEST PUSH1 0x1 DUP6 GT ISZERO PUSH3 0x64B JUMPI DUP1 DUP7 DIV DUP2 GT ISZERO PUSH3 0x623 JUMPI PUSH3 0x622 PUSH3 0x5BD JUMP JUMPDEST JUMPDEST PUSH1 0x1 DUP6 AND ISZERO PUSH3 0x633 JUMPI DUP1 DUP3 MUL SWAP2 POP JUMPDEST DUP1 DUP2 MUL SWAP1 POP PUSH3 0x643 DUP6 PUSH3 0x5EC JUMP JUMPDEST SWAP5 POP PUSH3 0x603 JUMP JUMPDEST SWAP5 POP SWAP5 SWAP3 POP POP POP JUMP JUMPDEST PUSH1 0x0 DUP3 PUSH3 0x666 JUMPI PUSH1 0x1 SWAP1 POP PUSH3 0x739 JUMP JUMPDEST DUP2 PUSH3 0x676 JUMPI PUSH1 0x0 SWAP1 POP PUSH3 0x739 JUMP JUMPDEST DUP2 PUSH1 0x1 DUP2 EQ PUSH3 0x68F JUMPI PUSH1 0x2 DUP2 EQ PUSH3 0x69A JUMPI PUSH3 0x6D0 JUMP JUMPDEST PUSH1 0x1 SWAP2 POP POP PUSH3 0x739 JUMP JUMPDEST PUSH1 0xFF DUP5 GT ISZERO PUSH3 0x6AF JUMPI PUSH3 0x6AE PUSH3 0x5BD JUMP JUMPDEST JUMPDEST DUP4 PUSH1 0x2 EXP SWAP2 POP DUP5 DUP3 GT ISZERO PUSH3 0x6C9 JUMPI PUSH3 0x6C8 PUSH3 0x5BD JUMP JUMPDEST JUMPDEST POP PUSH3 0x739 JUMP JUMPDEST POP PUSH1 0x20 DUP4 LT PUSH2 0x133 DUP4 LT AND PUSH1 0x4E DUP5 LT PUSH1 0xB DUP5 LT AND OR ISZERO PUSH3 0x70A JUMPI DUP3 DUP3 EXP SWAP1 POP DUP4 DUP2 GT ISZERO PUSH3 0x704 JUMPI PUSH3 0x703 PUSH3 0x5BD JUMP JUMPDEST JUMPDEST PUSH3 0x739 JUMP JUMPDEST PUSH3 0x719 DUP5 DUP5 DUP5 PUSH1 0x1 PUSH3 0x5F9 JUMP JUMPDEST SWAP3 POP SWAP1 POP DUP2 DUP5 DIV DUP2 GT ISZERO PUSH3 0x733 JUMPI PUSH3 0x732 PUSH3 0x5BD JUMP JUMPDEST JUMPDEST DUP2 DUP2 MUL SWAP1 POP JUMPDEST SWAP4 SWAP3 POP POP POP JUMP JUMPDEST PUSH1 0x0 PUSH3 0x74D DUP3 PUSH3 0x382 JUMP JUMPDEST SWAP2 POP PUSH3 0x75A DUP4 PUSH3 0x382 JUMP JUMPDEST SWAP3 POP PUSH3 0x789 PUSH32 0xFFFFFFFFFFFFFFFFFFFFFFFFFFFFFFFFFFFFFFFFFFFFFFFFFFFFFFFFFFFFFFFF DUP5 DUP5 PUSH3 0x654 JUMP JUMPDEST SWAP1 POP SWAP3 SWAP2 POP POP JUMP JUMPDEST PUSH1 0x0 PUSH3 0x79E DUP3 PUSH3 0x382 JUMP JUMPDEST SWAP2 POP PUSH3 0x7AB DUP4 PUSH3 0x382 JUMP JUMPDEST SWAP3 POP DUP3 DUP3 MUL PUSH3 0x7BB DUP2 PUSH3 0x382 JUMP JUMPDEST SWAP2 POP DUP3 DUP3 DIV DUP5 EQ DUP4 ISZERO OR PUSH3 0x7D5 JUMPI PUSH3 0x7D4 PUSH3 0x5BD JUMP JUMPDEST JUMPDEST POP SWAP3 SWAP2 POP POP JUMP JUMPDEST PUSH1 0x0 DUP3 DUP3 MSTORE PUSH1 0x20 DUP3 ADD SWAP1 POP SWAP3 SWAP2 POP POP JUMP JUMPDEST PUSH32 0x45524332303A206D696E7420746F20746865207A65726F206164647265737300 PUSH1 0x0 DUP3 ADD MSTORE POP JUMP JUMPDEST PUSH1 0x0 PUSH3 0x825 PUSH1 0x1F DUP4 PUSH3 0x7DC JUMP JUMPDEST SWAP2 POP PUSH3 0x832 DUP3 PUSH3 0x7ED JUMP JUMPDEST PUSH1 0x20 DUP3 ADD SWAP1 POP SWAP2 SWAP1 POP JUMP JUMPDEST PUSH1 0x0 PUSH1 0x20 DUP3 ADD SWAP1 POP DUP2 DUP2 SUB PUSH1 0x0 DUP4 ADD MSTORE PUSH3 0x858 DUP2 PUSH3 0x816 JUMP JUMPDEST SWAP1 POP SWAP2 SWAP1 POP JUMP JUMPDEST PUSH1 0x0 PUSH3 0x86C DUP3 PUSH3 0x382 JUMP JUMPDEST SWAP2 POP PUSH3 0x879 DUP4 PUSH3 0x382 JUMP JUMPDEST SWAP3 POP DUP3 DUP3 ADD SWAP1 POP DUP1 DUP3 GT ISZERO PUSH3 0x894 JUMPI PUSH3 0x893 PUSH3 0x5BD JUMP JUMPDEST JUMPDEST SWAP3 SWAP2 POP POP JUMP JUMPDEST PUSH3 0x8A5 DUP2 PUSH3 0x382 JUMP JUMPDEST DUP3 MSTORE POP POP JUMP JUMPDEST PUSH1 0x0 PUSH1 0x20 DUP3 ADD SWAP1 POP PUSH3 0x8C2 PUSH1 0x0 DUP4 ADD DUP5 PUSH3 0x89A JUMP JUMPDEST SWAP3 SWAP2 POP POP JUMP JUMPDEST PUSH2 0x1E84 DUP1 PUSH3 0x8D8 PUSH1 0x0 CODECOPY PUSH1 0x0 RETURN INVALID PUSH1 0x80 PUSH1 0x40 MSTORE CALLVALUE DUP1 ISZERO PUSH2 0x10 JUMPI PUSH1 0x0 DUP1 REVERT JUMPDEST POP PUSH1 0x4 CALLDATASIZE LT PUSH2 0xEA JUMPI PUSH1 0x0 CALLDATALOAD PUSH1 0xE0 SHR DUP1 PUSH4 0x70A08231 GT PUSH2 0x8C JUMPI DUP1 PUSH4 0xA457C2D7 GT PUSH2 0x66 JUMPI DUP1 PUSH4 0xA457C2D7 EQ PUSH2 0x25F JUMPI DUP1 PUSH4 0xA9059CBB EQ PUSH2 0x28F JUMPI DUP1 PUSH4 0xC634D032 EQ PUSH2 0x2BF JUMPI DUP1 PUSH4 0xDD62ED3E EQ PUSH2 0x2DB JUMPI PUSH2 0xEA JUMP JUMPDEST DUP1 PUSH4 0x70A08231 EQ PUSH2 0x1F5 JUMPI DUP1 PUSH4 0x7B47EC1A EQ PUSH2 0x225 JUMPI DUP1 PUSH4 0x95D89B41 EQ PUSH2 0x241 JUMPI PUSH2 0xEA JUMP JUMPDEST DUP1 PUSH4 0x18160DDD GT PUSH2 0xC8 JUMPI DUP1 PUSH4 0x18160DDD EQ PUSH2 0x159 JUMPI DUP1 PUSH4 0x23B872DD EQ PUSH2 0x177 JUMPI DUP1 PUSH4 0x313CE567 EQ PUSH2 0x1A7 JUMPI DUP1 PUSH4 0x39509351 EQ PUSH2 0x1C5 JUMPI PUSH2 0xEA JUMP JUMPDEST DUP1 PUSH4 0x6FDDE03 EQ PUSH2 0xEF JUMPI DUP1 PUSH4 0x95EA7B3 EQ PUSH2 0x10D JUMPI DUP1 PUSH4 0x1072CBEA EQ PUSH2 0x13D JUMPI JUMPDEST PUSH1 0x0 DUP1 REVERT JUMPDEST PUSH2 0xF7 PUSH2 0x30B JUMP JUMPDEST PUSH1 0x40 MLOAD PUSH2 0x104 SWAP2 SWAP1 PUSH2 0x12DE JUMP JUMPDEST PUSH1 0x40 MLOAD DUP1 SWAP2 SUB SWAP1 RETURN JUMPDEST PUSH2 0x127 PUSH1 0x4 DUP1 CALLDATASIZE SUB DUP2 ADD SWAP1 PUSH2 0x122 SWAP2 SWAP1 PUSH2 0x1399 JUMP JUMPDEST PUSH2 0x39D JUMP JUMPDEST PUSH1 0x40 MLOAD PUSH2 0x134 SWAP2 SWAP1 PUSH2 0x13F4 JUMP JUMPDEST PUSH1 0x40 MLOAD DUP1 SWAP2 SUB SWAP1 RETURN JUMPDEST PUSH2 0x157 PUSH1 0x4 DUP1 CALLDATASIZE SUB DUP2 ADD SWAP1 PUSH2 0x152 SWAP2 SWAP1 PUSH2 0x1399 JUMP JUMPDEST PUSH2 0x3BB JUMP JUMPDEST STOP JUMPDEST PUSH2 0x161 PUSH2 0x431 JUMP JUMPDEST PUSH1 0x40 MLOAD PUSH2 0x16E SWAP2 SWAP1 PUSH2 0x141E JUMP JUMPDEST PUSH1 0x40 MLOAD DUP1 SWAP2 SUB SWAP1 RETURN JUMPDEST PUSH2 0x191 PUSH1 0x4 DUP1 CALLDATASIZE SUB DUP2 ADD SWAP1 PUSH2 0x18C SWAP2 SWAP1 PUSH2 0x1439 JUMP JUMPDEST PUSH2 0x43B JUMP JUMPDEST PUSH1 0x40 MLOAD PUSH2 0x19E SWAP2 SWAP1 PUSH2 0x13F4 JUMP JUMPDEST PUSH1 0x40 MLOAD DUP1 SWAP2 SUB SWAP1 RETURN JUMPDEST PUSH2 0x1AF PUSH2 0x53C JUMP JUMPDEST PUSH1 0x40 MLOAD PUSH2 0x1BC SWAP2 SWAP1 PUSH2 0x14A8 JUMP JUMPDEST PUSH1 0x40 MLOAD DUP1 SWAP2 SUB SWAP1 RETURN JUMPDEST PUSH2 0x1DF PUSH1 0x4 DUP1 CALLDATASIZE SUB DUP2 ADD SWAP1 PUSH2 0x1DA SWAP2 SWAP1 PUSH2 0x1399 JUMP JUMPDEST PUSH2 0x545 JUMP JUMPDEST PUSH1 0x40 MLOAD PUSH2 0x1EC SWAP2 SWAP1 PUSH2 0x13F4 JUMP JUMPDEST PUSH1 0x40 MLOAD DUP1 SWAP2 SUB SWAP1 RETURN JUMPDEST PUSH2 0x20F PUSH1 0x4 DUP1 CALLDATASIZE SUB DUP2 ADD SWAP1 PUSH2 0x20A SWAP2 SWAP1 PUSH2 0x14C3 JUMP JUMPDEST PUSH2 0x5F1 JUMP JUMPDEST PUSH1 0x40 MLOAD PUSH2 0x21C SWAP2 SWAP1 PUSH2 0x141E JUMP JUMPDEST PUSH1 0x40 MLOAD DUP1 SWAP2 SUB SWAP1 RETURN JUMPDEST PUSH2 0x23F PUSH1 0x4 DUP1 CALLDATASIZE SUB DUP2 ADD SWAP1 PUSH2 0x23A SWAP2 SWAP1 PUSH2 0x14F0 JUMP JUMPDEST PUSH2 0x639 JUMP JUMPDEST STOP JUMPDEST PUSH2 0x249 PUSH2 0x6AC JUMP JUMPDEST PUSH1 0x40 MLOAD PUSH2 0x256 SWAP2 SWAP1 PUSH2 0x12DE JUMP JUMPDEST PUSH1 0x40 MLOAD DUP1 SWAP2 SUB SWAP1 RETURN JUMPDEST PUSH2 0x279 PUSH1 0x4 DUP1 CALLDATASIZE SUB DUP2 ADD SWAP1 PUSH2 0x274 SWAP2 SWAP1 PUSH2 0x1399 JUMP JUMPDEST PUSH2 0x73E JUMP JUMPDEST PUSH1 0x40 MLOAD PUSH2 0x286 SWAP2 SWAP1 PUSH2 0x13F4 JUMP JUMPDEST PUSH1 0x40 MLOAD DUP1 SWAP2 SUB SWAP1 RETURN JUMPDEST PUSH2 0x2A9 PUSH1 0x4 DUP1 CALLDATASIZE SUB DUP2 ADD SWAP1 PUSH2 0x2A4 SWAP2 SWAP1 PUSH2 0x1399 JUMP JUMPDEST PUSH2 0x832 JUMP JUMPDEST PUSH1 0x40 MLOAD PUSH2 0x2B6 SWAP2 SWAP1 PUSH2 0x13F4 JUMP JUMPDEST PUSH1 0x40 MLOAD DUP1 SWAP2 SUB SWAP1 RETURN JUMPDEST PUSH2 0x2D9 PUSH1 0x4 DUP1 CALLDATASIZE SUB DUP2 ADD SWAP1 PUSH2 0x2D4 SWAP2 SWAP1 PUSH2 0x14F0 JUMP JUMPDEST PUSH2 0x850 JUMP JUMPDEST STOP JUMPDEST PUSH2 0x2F5 PUSH1 0x4 DUP1 CALLDATASIZE SUB DUP2 ADD SWAP1 PUSH2 0x2F0 SWAP2 SWAP1 PUSH2 0x151D JUMP JUMPDEST PUSH2 0x8C3 JUMP JUMPDEST PUSH1 0x40 MLOAD PUSH2 0x302 SWAP2 SWAP1 PUSH2 0x141E JUMP JUMPDEST PUSH1 0x40 MLOAD DUP1 SWAP2 SUB SWAP1 RETURN JUMPDEST PUSH1 0x60 PUSH1 0x3 DUP1 SLOAD PUSH2 0x31A SWAP1 PUSH2 0x158C JUMP JUMPDEST DUP1 PUSH1 0x1F ADD PUSH1 0x20 DUP1 SWAP2 DIV MUL PUSH1 0x20 ADD PUSH1 0x40 MLOAD SWAP1 DUP2 ADD PUSH1 0x40 MSTORE DUP1 SWAP3 SWAP2 SWAP1 DUP2 DUP2 MSTORE PUSH1 0x20 ADD DUP3 DUP1 SLOAD PUSH2 0x346 SWAP1 PUSH2 0x158C JUMP JUMPDEST DUP1 ISZERO PUSH2 0x393 JUMPI DUP1 PUSH1 0x1F LT PUSH2 0x368 JUMPI PUSH2 0x100 DUP1 DUP4 SLOAD DIV MUL DUP4 MSTORE SWAP2 PUSH1 0x20 ADD SWAP2 PUSH2 0x393 JUMP JUMPDEST DUP3 ADD SWAP2 SWAP1 PUSH1 0x0 MSTORE PUSH1 0x20 PUSH1 0x0 KECCAK256 SWAP1 JUMPDEST DUP2 SLOAD DUP2 MSTORE SWAP1 PUSH1 0x1 ADD SWAP1 PUSH1 0x20 ADD DUP1 DUP4 GT PUSH2 0x376 JUMPI DUP3 SWAP1 SUB PUSH1 0x1F AND DUP3 ADD SWAP2 JUMPDEST POP POP POP POP POP SWAP1 POP SWAP1 JUMP JUMPDEST PUSH1 0x0 PUSH2 0x3B1 PUSH2 0x3AA PUSH2 0x94A JUMP JUMPDEST DUP5 DUP5 PUSH2 0x952 JUMP JUMPDEST PUSH1 0x1 SWAP1 POP SWAP3 SWAP2 POP POP JUMP JUMPDEST PUSH1 0x0 PUSH2 0x3C5 PUSH2 0x53C JUMP JUMPDEST PUSH1 0xFF AND PUSH1 0xA PUSH2 0x3D4 SWAP2 SWAP1 PUSH2 0x171F JUMP JUMPDEST DUP3 PUSH2 0x3DF SWAP2 SWAP1 PUSH2 0x176A JUMP JUMPDEST SWAP1 POP PUSH2 0x3EC CALLER DUP5 DUP4 PUSH2 0xB1B JUMP JUMPDEST PUSH2 0x42C PUSH1 0x40 MLOAD DUP1 PUSH1 0x40 ADD PUSH1 0x40 MSTORE DUP1 PUSH1 0x1A DUP2 MSTORE PUSH1 0x20 ADD PUSH32 0x596F75207472616E73666572656420257320435420746F202573000000000000 DUP2 MSTORE POP DUP4 DUP6 PUSH2 0xD98 JUMP JUMPDEST POP POP POP JUMP JUMPDEST PUSH1 0x0 PUSH1 0x2 SLOAD SWAP1 POP SWAP1 JUMP JUMPDEST PUSH1 0x0 PUSH2 0x448 DUP5 DUP5 DUP5 PUSH2 0xB1B JUMP JUMPDEST PUSH1 0x0 PUSH1 0x1 PUSH1 0x0 DUP7 PUSH20 0xFFFFFFFFFFFFFFFFFFFFFFFFFFFFFFFFFFFFFFFF AND PUSH20 0xFFFFFFFFFFFFFFFFFFFFFFFFFFFFFFFFFFFFFFFF AND DUP2 MSTORE PUSH1 0x20 ADD SWAP1 DUP2 MSTORE PUSH1 0x20 ADD PUSH1 0x0 KECCAK256 PUSH1 0x0 PUSH2 0x493 PUSH2 0x94A JUMP JUMPDEST PUSH20 0xFFFFFFFFFFFFFFFFFFFFFFFFFFFFFFFFFFFFFFFF AND PUSH20 0xFFFFFFFFFFFFFFFFFFFFFFFFFFFFFFFFFFFFFFFF AND DUP2 MSTORE PUSH1 0x20 ADD SWAP1 DUP2 MSTORE PUSH1 0x20 ADD PUSH1 0x0 KECCAK256 SLOAD SWAP1 POP DUP3 DUP2 LT ISZERO PUSH2 0x513 JUMPI PUSH1 0x40 MLOAD PUSH32 0x8C379A000000000000000000000000000000000000000000000000000000000 DUP2 MSTORE PUSH1 0x4 ADD PUSH2 0x50A SWAP1 PUSH2 0x181E JUMP JUMPDEST PUSH1 0x40 MLOAD DUP1 SWAP2 SUB SWAP1 REVERT JUMPDEST PUSH2 0x530 DUP6 PUSH2 0x51F PUSH2 0x94A JUMP JUMPDEST DUP6 DUP5 PUSH2 0x52B SWAP2 SWAP1 PUSH2 0x183E JUMP JUMPDEST PUSH2 0x952 JUMP JUMPDEST PUSH1 0x1 SWAP2 POP POP SWAP4 SWAP3 POP POP POP JUMP JUMPDEST PUSH1 0x0 PUSH1 0x12 SWAP1 POP SWAP1 JUMP JUMPDEST PUSH1 0x0 PUSH2 0x5E7 PUSH2 0x552 PUSH2 0x94A JUMP JUMPDEST DUP5 DUP5 PUSH1 0x1 PUSH1 0x0 PUSH2 0x560 PUSH2 0x94A JUMP JUMPDEST PUSH20 0xFFFFFFFFFFFFFFFFFFFFFFFFFFFFFFFFFFFFFFFF AND PUSH20 0xFFFFFFFFFFFFFFFFFFFFFFFFFFFFFFFFFFFFFFFF AND DUP2 MSTORE PUSH1 0x20 ADD SWAP1 DUP2 MSTORE PUSH1 0x20 ADD PUSH1 0x0 KECCAK256 PUSH1 0x0 DUP9 PUSH20 0xFFFFFFFFFFFFFFFFFFFFFFFFFFFFFFFFFFFFFFFF AND PUSH20 0xFFFFFFFFFFFFFFFFFFFFFFFFFFFFFFFFFFFFFFFF AND DUP2 MSTORE PUSH1 0x20 ADD SWAP1 DUP2 MSTORE PUSH1 0x20 ADD PUSH1 0x0 KECCAK256 SLOAD PUSH2 0x5E2 SWAP2 SWAP1 PUSH2 0x1872 JUMP JUMPDEST PUSH2 0x952 JUMP JUMPDEST PUSH1 0x1 SWAP1 POP SWAP3 SWAP2 POP POP JUMP JUMPDEST PUSH1 0x0 DUP1 PUSH1 0x0 DUP4 PUSH20 0xFFFFFFFFFFFFFFFFFFFFFFFFFFFFFFFFFFFFFFFF AND PUSH20 0xFFFFFFFFFFFFFFFFFFFFFFFFFFFFFFFFFFFFFFFF AND DUP2 MSTORE PUSH1 0x20 ADD SWAP1 DUP2 MSTORE PUSH1 0x20 ADD PUSH1 0x0 KECCAK256 SLOAD SWAP1 POP SWAP2 SWAP1 POP JUMP JUMPDEST PUSH1 0x0 PUSH2 0x643 PUSH2 0x53C JUMP JUMPDEST PUSH1 0xFF AND PUSH1 0xA PUSH2 0x652 SWAP2 SWAP1 PUSH2 0x171F JUMP JUMPDEST DUP3 PUSH2 0x65D SWAP2 SWAP1 PUSH2 0x176A JUMP JUMPDEST SWAP1 POP PUSH2 0x669 CALLER DUP3 PUSH2 0xE37 JUMP JUMPDEST PUSH2 0x6A8 PUSH1 0x40 MLOAD DUP1 PUSH1 0x40 ADD PUSH1 0x40 MSTORE DUP1 PUSH1 0x15 DUP2 MSTORE PUSH1 0x20 ADD PUSH32 0x596F75206275726E656420257320746F6B656E732E0000000000000000000000 DUP2 MSTORE POP DUP4 PUSH2 0x100A JUMP JUMPDEST POP POP JUMP JUMPDEST PUSH1 0x60 PUSH1 0x4 DUP1 SLOAD PUSH2 0x6BB SWAP1 PUSH2 0x158C JUMP JUMPDEST DUP1 PUSH1 0x1F ADD PUSH1 0x20 DUP1 SWAP2 DIV MUL PUSH1 0x20 ADD PUSH1 0x40 MLOAD SWAP1 DUP2 ADD PUSH1 0x40 MSTORE DUP1 SWAP3 SWAP2 SWAP1 DUP2 DUP2 MSTORE PUSH1 0x20 ADD DUP3 DUP1 SLOAD PUSH2 0x6E7 SWAP1 PUSH2 0x158C JUMP JUMPDEST DUP1 ISZERO PUSH2 0x734 JUMPI DUP1 PUSH1 0x1F LT PUSH2 0x709 JUMPI PUSH2 0x100 DUP1 DUP4 SLOAD DIV MUL DUP4 MSTORE SWAP2 PUSH1 0x20 ADD SWAP2 PUSH2 0x734 JUMP JUMPDEST DUP3 ADD SWAP2 SWAP1 PUSH1 0x0 MSTORE PUSH1 0x20 PUSH1 0x0 KECCAK256 SWAP1 JUMPDEST DUP2 SLOAD DUP2 MSTORE SWAP1 PUSH1 0x1 ADD SWAP1 PUSH1 0x20 ADD DUP1 DUP4 GT PUSH2 0x717 JUMPI DUP3 SWAP1 SUB PUSH1 0x1F AND DUP3 ADD SWAP2 JUMPDEST POP POP POP POP POP SWAP1 POP SWAP1 JUMP JUMPDEST PUSH1 0x0 DUP1 PUSH1 0x1 PUSH1 0x0 PUSH2 0x74D PUSH2 0x94A JUMP JUMPDEST PUSH20 0xFFFFFFFFFFFFFFFFFFFFFFFFFFFFFFFFFFFFFFFF AND PUSH20 0xFFFFFFFFFFFFFFFFFFFFFFFFFFFFFFFFFFFFFFFF AND DUP2 MSTORE PUSH1 0x20 ADD SWAP1 DUP2 MSTORE PUSH1 0x20 ADD PUSH1 0x0 KECCAK256 PUSH1 0x0 DUP6 PUSH20 0xFFFFFFFFFFFFFFFFFFFFFFFFFFFFFFFFFFFFFFFF AND PUSH20 0xFFFFFFFFFFFFFFFFFFFFFFFFFFFFFFFFFFFFFFFF AND DUP2 MSTORE PUSH1 0x20 ADD SWAP1 DUP2 MSTORE PUSH1 0x20 ADD PUSH1 0x0 KECCAK256 SLOAD SWAP1 POP DUP3 DUP2 LT ISZERO PUSH2 0x80A JUMPI PUSH1 0x40 MLOAD PUSH32 0x8C379A000000000000000000000000000000000000000000000000000000000 DUP2 MSTORE PUSH1 0x4 ADD PUSH2 0x801 SWAP1 PUSH2 0x1918 JUMP JUMPDEST PUSH1 0x40 MLOAD DUP1 SWAP2 SUB SWAP1 REVERT JUMPDEST PUSH2 0x827 PUSH2 0x815 PUSH2 0x94A JUMP JUMPDEST DUP6 DUP6 DUP5 PUSH2 0x822 SWAP2 SWAP1 PUSH2 0x183E JUMP JUMPDEST PUSH2 0x952 JUMP JUMPDEST PUSH1 0x1 SWAP2 POP POP SWAP3 SWAP2 POP POP JUMP JUMPDEST PUSH1 0x0 PUSH2 0x846 PUSH2 0x83F PUSH2 0x94A JUMP JUMPDEST DUP5 DUP5 PUSH2 0xB1B JUMP JUMPDEST PUSH1 0x1 SWAP1 POP SWAP3 SWAP2 POP POP JUMP JUMPDEST PUSH1 0x0 PUSH2 0x85A PUSH2 0x53C JUMP JUMPDEST PUSH1 0xFF AND PUSH1 0xA PUSH2 0x869 SWAP2 SWAP1 PUSH2 0x171F JUMP JUMPDEST DUP3 PUSH2 0x874 SWAP2 SWAP1 PUSH2 0x176A JUMP JUMPDEST SWAP1 POP PUSH2 0x880 CALLER DUP3 PUSH2 0x10A6 JUMP JUMPDEST PUSH2 0x8BF PUSH1 0x40 MLOAD DUP1 PUSH1 0x40 ADD PUSH1 0x40 MSTORE DUP1 PUSH1 0x14 DUP2 MSTORE PUSH1 0x20 ADD PUSH32 0x596F75206D696E74656420257320746F6B656E73000000000000000000000000 DUP2 MSTORE POP DUP4 PUSH2 0x100A JUMP JUMPDEST POP POP JUMP JUMPDEST PUSH1 0x0 PUSH1 0x1 PUSH1 0x0 DUP5 PUSH20 0xFFFFFFFFFFFFFFFFFFFFFFFFFFFFFFFFFFFFFFFF AND PUSH20 0xFFFFFFFFFFFFFFFFFFFFFFFFFFFFFFFFFFFFFFFF AND DUP2 MSTORE PUSH1 0x20 ADD SWAP1 DUP2 MSTORE PUSH1 0x20 ADD PUSH1 0x0 KECCAK256 PUSH1 0x0 DUP4 PUSH20 0xFFFFFFFFFFFFFFFFFFFFFFFFFFFFFFFFFFFFFFFF AND PUSH20 0xFFFFFFFFFFFFFFFFFFFFFFFFFFFFFFFFFFFFFFFF AND DUP2 MSTORE PUSH1 0x20 ADD SWAP1 DUP2 MSTORE PUSH1 0x20 ADD PUSH1 0x0 KECCAK256 SLOAD SWAP1 POP SWAP3 SWAP2 POP POP JUMP JUMPDEST PUSH1 0x0 CALLER SWAP1 POP SWAP1 JUMP JUMPDEST PUSH1 0x0 PUSH20 0xFFFFFFFFFFFFFFFFFFFFFFFFFFFFFFFFFFFFFFFF AND DUP4 PUSH20 0xFFFFFFFFFFFFFFFFFFFFFFFFFFFFFFFFFFFFFFFF AND SUB PUSH2 0x9C1 JUMPI PUSH1 0x40 MLOAD PUSH32 0x8C379A000000000000000000000000000000000000000000000000000000000 DUP2 MSTORE PUSH1 0x4 ADD PUSH2 0x9B8 SWAP1 PUSH2 0x19AA JUMP JUMPDEST PUSH1 0x40 MLOAD DUP1 SWAP2 SUB SWAP1 REVERT JUMPDEST PUSH1 0x0 PUSH20 0xFFFFFFFFFFFFFFFFFFFFFFFFFFFFFFFFFFFFFFFF AND DUP3 PUSH20 0xFFFFFFFFFFFFFFFFFFFFFFFFFFFFFFFFFFFFFFFF AND SUB PUSH2 0xA30 JUMPI PUSH1 0x40 MLOAD PUSH32 0x8C379A000000000000000000000000000000000000000000000000000000000 DUP2 MSTORE PUSH1 0x4 ADD PUSH2 0xA27 SWAP1 PUSH2 0x1A3C JUMP JUMPDEST PUSH1 0x40 MLOAD DUP1 SWAP2 SUB SWAP1 REVERT JUMPDEST DUP1 PUSH1 0x1 PUSH1 0x0 DUP6 PUSH20 0xFFFFFFFFFFFFFFFFFFFFFFFFFFFFFFFFFFFFFFFF AND PUSH20 0xFFFFFFFFFFFFFFFFFFFFFFFFFFFFFFFFFFFFFFFF AND DUP2 MSTORE PUSH1 0x20 ADD SWAP1 DUP2 MSTORE PUSH1 0x20 ADD PUSH1 0x0 KECCAK256 PUSH1 0x0 DUP5 PUSH20 0xFFFFFFFFFFFFFFFFFFFFFFFFFFFFFFFFFFFFFFFF AND PUSH20 0xFFFFFFFFFFFFFFFFFFFFFFFFFFFFFFFFFFFFFFFF AND DUP2 MSTORE PUSH1 0x20 ADD SWAP1 DUP2 MSTORE PUSH1 0x20 ADD PUSH1 0x0 KECCAK256 DUP2 SWAP1 SSTORE POP DUP2 PUSH20 0xFFFFFFFFFFFFFFFFFFFFFFFFFFFFFFFFFFFFFFFF AND DUP4 PUSH20 0xFFFFFFFFFFFFFFFFFFFFFFFFFFFFFFFFFFFFFFFF AND PUSH32 0x8C5BE1E5EBEC7D5BD14F71427D1E84F3DD0314C0F7B2291E5B200AC8C7C3B925 DUP4 PUSH1 0x40 MLOAD PUSH2 0xB0E SWAP2 SWAP1 PUSH2 0x141E JUMP JUMPDEST PUSH1 0x40 MLOAD DUP1 SWAP2 SUB SWAP1 LOG3 POP POP POP JUMP JUMPDEST PUSH1 0x0 PUSH20 0xFFFFFFFFFFFFFFFFFFFFFFFFFFFFFFFFFFFFFFFF AND DUP4 PUSH20 0xFFFFFFFFFFFFFFFFFFFFFFFFFFFFFFFFFFFFFFFF AND SUB PUSH2 0xB8A JUMPI PUSH1 0x40 MLOAD PUSH32 0x8C379A000000000000000000000000000000000000000000000000000000000 DUP2 MSTORE PUSH1 0x4 ADD PUSH2 0xB81 SWAP1 PUSH2 0x1ACE JUMP JUMPDEST PUSH1 0x40 MLOAD DUP1 SWAP2 SUB SWAP1 REVERT JUMPDEST PUSH1 0x0 PUSH20 0xFFFFFFFFFFFFFFFFFFFFFFFFFFFFFFFFFFFFFFFF AND DUP3 PUSH20 0xFFFFFFFFFFFFFFFFFFFFFFFFFFFFFFFFFFFFFFFF AND SUB PUSH2 0xBF9 JUMPI PUSH1 0x40 MLOAD PUSH32 0x8C379A000000000000000000000000000000000000000000000000000000000 DUP2 MSTORE PUSH1 0x4 ADD PUSH2 0xBF0 SWAP1 PUSH2 0x1B60 JUMP JUMPDEST PUSH1 0x40 MLOAD DUP1 SWAP2 SUB SWAP1 REVERT JUMPDEST PUSH2 0xC04 DUP4 DUP4 DUP4 PUSH2 0x11F9 JUMP JUMPDEST PUSH1 0x0 DUP1 PUSH1 0x0 DUP6 PUSH20 0xFFFFFFFFFFFFFFFFFFFFFFFFFFFFFFFFFFFFFFFF AND PUSH20 0xFFFFFFFFFFFFFFFFFFFFFFFFFFFFFFFFFFFFFFFF AND DUP2 MSTORE PUSH1 0x20 ADD SWAP1 DUP2 MSTORE PUSH1 0x20 ADD PUSH1 0x0 KECCAK256 SLOAD SWAP1 POP DUP2 DUP2 LT ISZERO PUSH2 0xC8A JUMPI PUSH1 0x40 MLOAD PUSH32 0x8C379A000000000000000000000000000000000000000000000000000000000 DUP2 MSTORE PUSH1 0x4 ADD PUSH2 0xC81 SWAP1 PUSH2 0x1BF2 JUMP JUMPDEST PUSH1 0x40 MLOAD DUP1 SWAP2 SUB SWAP1 REVERT JUMPDEST DUP2 DUP2 PUSH2 0xC96 SWAP2 SWAP1 PUSH2 0x183E JUMP JUMPDEST PUSH1 0x0 DUP1 DUP7 PUSH20 0xFFFFFFFFFFFFFFFFFFFFFFFFFFFFFFFFFFFFFFFF AND PUSH20 0xFFFFFFFFFFFFFFFFFFFFFFFFFFFFFFFFFFFFFFFF AND DUP2 MSTORE PUSH1 0x20 ADD SWAP1 DUP2 MSTORE PUSH1 0x20 ADD PUSH1 0x0 KECCAK256 DUP2 SWAP1 SSTORE POP DUP2 PUSH1 0x0 DUP1 DUP6 PUSH20 0xFFFFFFFFFFFFFFFFFFFFFFFFFFFFFFFFFFFFFFFF AND PUSH20 0xFFFFFFFFFFFFFFFFFFFFFFFFFFFFFFFFFFFFFFFF AND DUP2 MSTORE PUSH1 0x20 ADD SWAP1 DUP2 MSTORE PUSH1 0x20 ADD PUSH1 0x0 KECCAK256 PUSH1 0x0 DUP3 DUP3 SLOAD PUSH2 0xD26 SWAP2 SWAP1 PUSH2 0x1872 JUMP JUMPDEST SWAP3 POP POP DUP2 SWAP1 SSTORE POP DUP3 PUSH20 0xFFFFFFFFFFFFFFFFFFFFFFFFFFFFFFFFFFFFFFFF AND DUP5 PUSH20 0xFFFFFFFFFFFFFFFFFFFFFFFFFFFFFFFFFFFFFFFF AND PUSH32 0xDDF252AD1BE2C89B69C2B068FC378DAA952BA7F163C4A11628F55A4DF523B3EF DUP5 PUSH1 0x40 MLOAD PUSH2 0xD8A SWAP2 SWAP1 PUSH2 0x141E JUMP JUMPDEST PUSH1 0x40 MLOAD DUP1 SWAP2 SUB SWAP1 LOG3 POP POP POP POP JUMP JUMPDEST PUSH2 0xE32 DUP4 DUP4 DUP4 PUSH1 0x40 MLOAD PUSH1 0x24 ADD PUSH2 0xDB0 SWAP4 SWAP3 SWAP2 SWAP1 PUSH2 0x1C21 JUMP JUMPDEST PUSH1 0x40 MLOAD PUSH1 0x20 DUP2 DUP4 SUB SUB DUP2 MSTORE SWAP1 PUSH1 0x40 MSTORE PUSH32 0x1C7EC44800000000000000000000000000000000000000000000000000000000 PUSH28 0xFFFFFFFFFFFFFFFFFFFFFFFFFFFFFFFFFFFFFFFFFFFFFFFFFFFFFFFF NOT AND PUSH1 0x20 DUP3 ADD DUP1 MLOAD PUSH28 0xFFFFFFFFFFFFFFFFFFFFFFFFFFFFFFFFFFFFFFFFFFFFFFFFFFFFFFFF DUP4 DUP2 DUP4 AND OR DUP4 MSTORE POP POP POP POP PUSH2 0x11FE JUMP JUMPDEST POP POP POP JUMP JUMPDEST PUSH1 0x0 PUSH20 0xFFFFFFFFFFFFFFFFFFFFFFFFFFFFFFFFFFFFFFFF AND DUP3 PUSH20 0xFFFFFFFFFFFFFFFFFFFFFFFFFFFFFFFFFFFFFFFF AND SUB PUSH2 0xEA6 JUMPI PUSH1 0x40 MLOAD PUSH32 0x8C379A000000000000000000000000000000000000000000000000000000000 DUP2 MSTORE PUSH1 0x4 ADD PUSH2 0xE9D SWAP1 PUSH2 0x1CD1 JUMP JUMPDEST PUSH1 0x40 MLOAD DUP1 SWAP2 SUB SWAP1 REVERT JUMPDEST PUSH2 0xEB2 DUP3 PUSH1 0x0 DUP4 PUSH2 0x11F9 JUMP JUMPDEST PUSH1 0x0 DUP1 PUSH1 0x0 DUP5 PUSH20 0xFFFFFFFFFFFFFFFFFFFFFFFFFFFFFFFFFFFFFFFF AND PUSH20 0xFFFFFFFFFFFFFFFFFFFFFFFFFFFFFFFFFFFFFFFF AND DUP2 MSTORE PUSH1 0x20 ADD SWAP1 DUP2 MSTORE PUSH1 0x20 ADD PUSH1 0x0 KECCAK256 SLOAD SWAP1 POP DUP2 DUP2 LT ISZERO PUSH2 0xF38 JUMPI PUSH1 0x40 MLOAD PUSH32 0x8C379A000000000000000000000000000000000000000000000000000000000 DUP2 MSTORE PUSH1 0x4 ADD PUSH2 0xF2F SWAP1 PUSH2 0x1D63 JUMP JUMPDEST PUSH1 0x40 MLOAD DUP1 SWAP2 SUB SWAP1 REVERT JUMPDEST DUP2 DUP2 PUSH2 0xF44 SWAP2 SWAP1 PUSH2 0x183E JUMP JUMPDEST PUSH1 0x0 DUP1 DUP6 PUSH20 0xFFFFFFFFFFFFFFFFFFFFFFFFFFFFFFFFFFFFFFFF AND PUSH20 0xFFFFFFFFFFFFFFFFFFFFFFFFFFFFFFFFFFFFFFFF AND DUP2 MSTORE PUSH1 0x20 ADD SWAP1 DUP2 MSTORE PUSH1 0x20 ADD PUSH1 0x0 KECCAK256 DUP2 SWAP1 SSTORE POP DUP2 PUSH1 0x2 PUSH1 0x0 DUP3 DUP3 SLOAD PUSH2 0xF98 SWAP2 SWAP1 PUSH2 0x183E JUMP JUMPDEST SWAP3 POP POP DUP2 SWAP1 SSTORE POP PUSH1 0x0 PUSH20 0xFFFFFFFFFFFFFFFFFFFFFFFFFFFFFFFFFFFFFFFF AND DUP4 PUSH20 0xFFFFFFFFFFFFFFFFFFFFFFFFFFFFFFFFFFFFFFFF AND PUSH32 0xDDF252AD1BE2C89B69C2B068FC378DAA952BA7F163C4A11628F55A4DF523B3EF DUP5 PUSH1 0x40 MLOAD PUSH2 0xFFD SWAP2 SWAP1 PUSH2 0x141E JUMP JUMPDEST PUSH1 0x40 MLOAD DUP1 SWAP2 SUB SWAP1 LOG3 POP POP POP JUMP JUMPDEST PUSH2 0x10A2 DUP3 DUP3 PUSH1 0x40 MLOAD PUSH1 0x24 ADD PUSH2 0x1020 SWAP3 SWAP2 SWAP1 PUSH2 0x1D83 JUMP JUMPDEST PUSH1 0x40 MLOAD PUSH1 0x20 DUP2 DUP4 SUB SUB DUP2 MSTORE SWAP1 PUSH1 0x40 MSTORE PUSH32 0xB60E72CC00000000000000000000000000000000000000000000000000000000 PUSH28 0xFFFFFFFFFFFFFFFFFFFFFFFFFFFFFFFFFFFFFFFFFFFFFFFFFFFFFFFF NOT AND PUSH1 0x20 DUP3 ADD DUP1 MLOAD PUSH28 0xFFFFFFFFFFFFFFFFFFFFFFFFFFFFFFFFFFFFFFFFFFFFFFFFFFFFFFFF DUP4 DUP2 DUP4 AND OR DUP4 MSTORE POP POP POP POP PUSH2 0x11FE JUMP JUMPDEST POP POP JUMP JUMPDEST PUSH1 0x0 PUSH20 0xFFFFFFFFFFFFFFFFFFFFFFFFFFFFFFFFFFFFFFFF AND DUP3 PUSH20 0xFFFFFFFFFFFFFFFFFFFFFFFFFFFFFFFFFFFFFFFF AND SUB PUSH2 0x1115 JUMPI PUSH1 0x40 MLOAD PUSH32 0x8C379A000000000000000000000000000000000000000000000000000000000 DUP2 MSTORE PUSH1 0x4 ADD PUSH2 0x110C SWAP1 PUSH2 0x1DFF JUMP JUMPDEST PUSH1 0x40 MLOAD DUP1 SWAP2 SUB SWAP1 REVERT JUMPDEST PUSH2 0x1121 PUSH1 0x0 DUP4 DUP4 PUSH2 0x11F9 JUMP JUMPDEST DUP1 PUSH1 0x2 PUSH1 0x0 DUP3 DUP3 SLOAD PUSH2 0x1133 SWAP2 SWAP1 PUSH2 0x1872 JUMP JUMPDEST SWAP3 POP POP DUP2 SWAP1 SSTORE POP DUP1 PUSH1 0x0 DUP1 DUP5 PUSH20 0xFFFFFFFFFFFFFFFFFFFFFFFFFFFFFFFFFFFFFFFF AND PUSH20 0xFFFFFFFFFFFFFFFFFFFFFFFFFFFFFFFFFFFFFFFF AND DUP2 MSTORE PUSH1 0x20 ADD SWAP1 DUP2 MSTORE PUSH1 0x20 ADD PUSH1 0x0 KECCAK256 PUSH1 0x0 DUP3 DUP3 SLOAD PUSH2 0x1188 SWAP2 SWAP1 PUSH2 0x1872 JUMP JUMPDEST SWAP3 POP POP DUP2 SWAP1 SSTORE POP DUP2 PUSH20 0xFFFFFFFFFFFFFFFFFFFFFFFFFFFFFFFFFFFFFFFF AND PUSH1 0x0 PUSH20 0xFFFFFFFFFFFFFFFFFFFFFFFFFFFFFFFFFFFFFFFF AND PUSH32 0xDDF252AD1BE2C89B69C2B068FC378DAA952BA7F163C4A11628F55A4DF523B3EF DUP4 PUSH1 0x40 MLOAD PUSH2 0x11ED SWAP2 SWAP1 PUSH2 0x141E JUMP JUMPDEST PUSH1 0x40 MLOAD DUP1 SWAP2 SUB SWAP1 LOG3 POP POP JUMP JUMPDEST POP POP POP JUMP JUMPDEST PUSH2 0x1215 DUP2 PUSH2 0x120D PUSH2 0x1218 PUSH2 0x1239 JUMP JUMPDEST PUSH4 0xFFFFFFFF AND JUMP JUMPDEST POP JUMP JUMPDEST PUSH1 0x0 PUSH11 0x636F6E736F6C652E6C6F67 SWAP1 POP PUSH1 0x0 DUP1 DUP4 MLOAD PUSH1 0x20 DUP6 ADD DUP5 GAS STATICCALL POP POP POP JUMP JUMPDEST PUSH2 0x1244 DUP2 SWAP1 POP SWAP2 SWAP1 POP JUMP JUMPDEST PUSH2 0x124C PUSH2 0x1E1F JUMP JUMPDEST JUMP JUMPDEST PUSH1 0x0 DUP2 MLOAD SWAP1 POP SWAP2 SWAP1 POP JUMP JUMPDEST PUSH1 0x0 DUP3 DUP3 MSTORE PUSH1 0x20 DUP3 ADD SWAP1 POP SWAP3 SWAP2 POP POP JUMP JUMPDEST PUSH1 0x0 JUMPDEST DUP4 DUP2 LT ISZERO PUSH2 0x1288 JUMPI DUP1 DUP3 ADD MLOAD DUP2 DUP5 ADD MSTORE PUSH1 0x20 DUP2 ADD SWAP1 POP PUSH2 0x126D JUMP JUMPDEST PUSH1 0x0 DUP5 DUP5 ADD MSTORE POP POP POP POP JUMP JUMPDEST PUSH1 0x0 PUSH1 0x1F NOT PUSH1 0x1F DUP4 ADD AND SWAP1 POP SWAP2 SWAP1 POP JUMP JUMPDEST PUSH1 0x0 PUSH2 0x12B0 DUP3 PUSH2 0x124E JUMP JUMPDEST PUSH2 0x12BA DUP2 DUP6 PUSH2 0x1259 JUMP JUMPDEST SWAP4 POP PUSH2 0x12CA DUP2 DUP6 PUSH1 0x20 DUP7 ADD PUSH2 0x126A JUMP JUMPDEST PUSH2 0x12D3 DUP2 PUSH2 0x1294 JUMP JUMPDEST DUP5 ADD SWAP2 POP POP SWAP3 SWAP2 POP POP JUMP JUMPDEST PUSH1 0x0 PUSH1 0x20 DUP3 ADD SWAP1 POP DUP2 DUP2 SUB PUSH1 0x0 DUP4 ADD MSTORE PUSH2 0x12F8 DUP2 DUP5 PUSH2 0x12A5 JUMP JUMPDEST SWAP1 POP SWAP3 SWAP2 POP POP JUMP JUMPDEST PUSH1 0x0 DUP1 REVERT JUMPDEST PUSH1 0x0 PUSH20 0xFFFFFFFFFFFFFFFFFFFFFFFFFFFFFFFFFFFFFFFF DUP3 AND SWAP1 POP SWAP2 SWAP1 POP JUMP JUMPDEST PUSH1 0x0 PUSH2 0x1330 DUP3 PUSH2 0x1305 JUMP JUMPDEST SWAP1 POP SWAP2 SWAP1 POP JUMP JUMPDEST PUSH2 0x1340 DUP2 PUSH2 0x1325 JUMP JUMPDEST DUP2 EQ PUSH2 0x134B JUMPI PUSH1 0x0 DUP1 REVERT JUMPDEST POP JUMP JUMPDEST PUSH1 0x0 DUP2 CALLDATALOAD SWAP1 POP PUSH2 0x135D DUP2 PUSH2 0x1337 JUMP JUMPDEST SWAP3 SWAP2 POP POP JUMP JUMPDEST PUSH1 0x0 DUP2 SWAP1 POP SWAP2 SWAP1 POP JUMP JUMPDEST PUSH2 0x1376 DUP2 PUSH2 0x1363 JUMP JUMPDEST DUP2 EQ PUSH2 0x1381 JUMPI PUSH1 0x0 DUP1 REVERT JUMPDEST POP JUMP JUMPDEST PUSH1 0x0 DUP2 CALLDATALOAD SWAP1 POP PUSH2 0x1393 DUP2 PUSH2 0x136D JUMP JUMPDEST SWAP3 SWAP2 POP POP JUMP JUMPDEST PUSH1 0x0 DUP1 PUSH1 0x40 DUP4 DUP6 SUB SLT ISZERO PUSH2 0x13B0 JUMPI PUSH2 0x13AF PUSH2 0x1300 JUMP JUMPDEST JUMPDEST PUSH1 0x0 PUSH2 0x13BE DUP6 DUP3 DUP7 ADD PUSH2 0x134E JUMP JUMPDEST SWAP3 POP POP PUSH1 0x20 PUSH2 0x13CF DUP6 DUP3 DUP7 ADD PUSH2 0x1384 JUMP JUMPDEST SWAP2 POP POP SWAP3 POP SWAP3 SWAP1 POP JUMP JUMPDEST PUSH1 0x0 DUP2 ISZERO ISZERO SWAP1 POP SWAP2 SWAP1 POP JUMP JUMPDEST PUSH2 0x13EE DUP2 PUSH2 0x13D9 JUMP JUMPDEST DUP3 MSTORE POP POP JUMP JUMPDEST PUSH1 0x0 PUSH1 0x20 DUP3 ADD SWAP1 POP PUSH2 0x1409 PUSH1 0x0 DUP4 ADD DUP5 PUSH2 0x13E5 JUMP JUMPDEST SWAP3 SWAP2 POP POP JUMP JUMPDEST PUSH2 0x1418 DUP2 PUSH2 0x1363 JUMP JUMPDEST DUP3 MSTORE POP POP JUMP JUMPDEST PUSH1 0x0 PUSH1 0x20 DUP3 ADD SWAP1 POP PUSH2 0x1433 PUSH1 0x0 DUP4 ADD DUP5 PUSH2 0x140F JUMP JUMPDEST SWAP3 SWAP2 POP POP JUMP JUMPDEST PUSH1 0x0 DUP1 PUSH1 0x0 PUSH1 0x60 DUP5 DUP7 SUB SLT ISZERO PUSH2 0x1452 JUMPI PUSH2 0x1451 PUSH2 0x1300 JUMP JUMPDEST JUMPDEST PUSH1 0x0 PUSH2 0x1460 DUP7 DUP3 DUP8 ADD PUSH2 0x134E JUMP JUMPDEST SWAP4 POP POP PUSH1 0x20 PUSH2 0x1471 DUP7 DUP3 DUP8 ADD PUSH2 0x134E JUMP JUMPDEST SWAP3 POP POP PUSH1 0x40 PUSH2 0x1482 DUP7 DUP3 DUP8 ADD PUSH2 0x1384 JUMP JUMPDEST SWAP2 POP POP SWAP3 POP SWAP3 POP SWAP3 JUMP JUMPDEST PUSH1 0x0 PUSH1 0xFF DUP3 AND SWAP1 POP SWAP2 SWAP1 POP JUMP JUMPDEST PUSH2 0x14A2 DUP2 PUSH2 0x148C JUMP JUMPDEST DUP3 MSTORE POP POP JUMP JUMPDEST PUSH1 0x0 PUSH1 0x20 DUP3 ADD SWAP1 POP PUSH2 0x14BD PUSH1 0x0 DUP4 ADD DUP5 PUSH2 0x1499 JUMP JUMPDEST SWAP3 SWAP2 POP POP JUMP JUMPDEST PUSH1 0x0 PUSH1 0x20 DUP3 DUP5 SUB SLT ISZERO PUSH2 0x14D9 JUMPI PUSH2 0x14D8 PUSH2 0x1300 JUMP JUMPDEST JUMPDEST PUSH1 0x0 PUSH2 0x14E7 DUP5 DUP3 DUP6 ADD PUSH2 0x134E JUMP JUMPDEST SWAP2 POP POP SWAP3 SWAP2 POP POP JUMP JUMPDEST PUSH1 0x0 PUSH1 0x20 DUP3 DUP5 SUB SLT ISZERO PUSH2 0x1506 JUMPI PUSH2 0x1505 PUSH2 0x1300 JUMP JUMPDEST JUMPDEST PUSH1 0x0 PUSH2 0x1514 DUP5 DUP3 DUP6 ADD PUSH2 0x1384 JUMP JUMPDEST SWAP2 POP POP SWAP3 SWAP2 POP POP JUMP JUMPDEST PUSH1 0x0 DUP1 PUSH1 0x40 DUP4 DUP6 SUB SLT ISZERO PUSH2 0x1534 JUMPI PUSH2 0x1533 PUSH2 0x1300 JUMP JUMPDEST JUMPDEST PUSH1 0x0 PUSH2 0x1542 DUP6 DUP3 DUP7 ADD PUSH2 0x134E JUMP JUMPDEST SWAP3 POP POP PUSH1 0x20 PUSH2 0x1553 DUP6 DUP3 DUP7 ADD PUSH2 0x134E JUMP JUMPDEST SWAP2 POP POP SWAP3 POP SWAP3 SWAP1 POP JUMP JUMPDEST PUSH32 0x4E487B7100000000000000000000000000000000000000000000000000000000 PUSH1 0x0 MSTORE PUSH1 0x22 PUSH1 0x4 MSTORE PUSH1 0x24 PUSH1 0x0 REVERT JUMPDEST PUSH1 0x0 PUSH1 0x2 DUP3 DIV SWAP1 POP PUSH1 0x1 DUP3 AND DUP1 PUSH2 0x15A4 JUMPI PUSH1 0x7F DUP3 AND SWAP2 POP JUMPDEST PUSH1 0x20 DUP3 LT DUP2 SUB PUSH2 0x15B7 JUMPI PUSH2 0x15B6 PUSH2 0x155D JUMP JUMPDEST JUMPDEST POP SWAP2 SWAP1 POP JUMP JUMPDEST PUSH32 0x4E487B7100000000000000000000000000000000000000000000000000000000 PUSH1 0x0 MSTORE PUSH1 0x11 PUSH1 0x4 MSTORE PUSH1 0x24 PUSH1 0x0 REVERT JUMPDEST PUSH1 0x0 DUP2 PUSH1 0x1 SHR SWAP1 POP SWAP2 SWAP1 POP JUMP JUMPDEST PUSH1 0x0 DUP1 DUP3 SWAP2 POP DUP4 SWAP1 POP JUMPDEST PUSH1 0x1 DUP6 GT ISZERO PUSH2 0x1643 JUMPI DUP1 DUP7 DIV DUP2 GT ISZERO PUSH2 0x161F JUMPI PUSH2 0x161E PUSH2 0x15BD JUMP JUMPDEST JUMPDEST PUSH1 0x1 DUP6 AND ISZERO PUSH2 0x162E JUMPI DUP1 DUP3 MUL SWAP2 POP JUMPDEST DUP1 DUP2 MUL SWAP1 POP PUSH2 0x163C DUP6 PUSH2 0x15EC JUMP JUMPDEST SWAP5 POP PUSH2 0x1603 JUMP JUMPDEST SWAP5 POP SWAP5 SWAP3 POP POP POP JUMP JUMPDEST PUSH1 0x0 DUP3 PUSH2 0x165C JUMPI PUSH1 0x1 SWAP1 POP PUSH2 0x1718 JUMP JUMPDEST DUP2 PUSH2 0x166A JUMPI PUSH1 0x0 SWAP1 POP PUSH2 0x1718 JUMP JUMPDEST DUP2 PUSH1 0x1 DUP2 EQ PUSH2 0x1680 JUMPI PUSH1 0x2 DUP2 EQ PUSH2 0x168A JUMPI PUSH2 0x16B9 JUMP JUMPDEST PUSH1 0x1 SWAP2 POP POP PUSH2 0x1718 JUMP JUMPDEST PUSH1 0xFF DUP5 GT ISZERO PUSH2 0x169C JUMPI PUSH2 0x169B PUSH2 0x15BD JUMP JUMPDEST JUMPDEST DUP4 PUSH1 0x2 EXP SWAP2 POP DUP5 DUP3 GT ISZERO PUSH2 0x16B3 JUMPI PUSH2 0x16B2 PUSH2 0x15BD JUMP JUMPDEST JUMPDEST POP PUSH2 0x1718 JUMP JUMPDEST POP PUSH1 0x20 DUP4 LT PUSH2 0x133 DUP4 LT AND PUSH1 0x4E DUP5 LT PUSH1 0xB DUP5 LT AND OR ISZERO PUSH2 0x16EE JUMPI DUP3 DUP3 EXP SWAP1 POP DUP4 DUP2 GT ISZERO PUSH2 0x16E9 JUMPI PUSH2 0x16E8 PUSH2 0x15BD JUMP JUMPDEST JUMPDEST PUSH2 0x1718 JUMP JUMPDEST PUSH2 0x16FB DUP5 DUP5 DUP5 PUSH1 0x1 PUSH2 0x15F9 JUMP JUMPDEST SWAP3 POP SWAP1 POP DUP2 DUP5 DIV DUP2 GT ISZERO PUSH2 0x1712 JUMPI PUSH2 0x1711 PUSH2 0x15BD JUMP JUMPDEST JUMPDEST DUP2 DUP2 MUL SWAP1 POP JUMPDEST SWAP4 SWAP3 POP POP POP JUMP JUMPDEST PUSH1 0x0 PUSH2 0x172A DUP3 PUSH2 0x1363 JUMP JUMPDEST SWAP2 POP PUSH2 0x1735 DUP4 PUSH2 0x1363 JUMP JUMPDEST SWAP3 POP PUSH2 0x1762 PUSH32 0xFFFFFFFFFFFFFFFFFFFFFFFFFFFFFFFFFFFFFFFFFFFFFFFFFFFFFFFFFFFFFFFF DUP5 DUP5 PUSH2 0x164C JUMP JUMPDEST SWAP1 POP SWAP3 SWAP2 POP POP JUMP JUMPDEST PUSH1 0x0 PUSH2 0x1775 DUP3 PUSH2 0x1363 JUMP JUMPDEST SWAP2 POP PUSH2 0x1780 DUP4 PUSH2 0x1363 JUMP JUMPDEST SWAP3 POP DUP3 DUP3 MUL PUSH2 0x178E DUP2 PUSH2 0x1363 JUMP JUMPDEST SWAP2 POP DUP3 DUP3 DIV DUP5 EQ DUP4 ISZERO OR PUSH2 0x17A5 JUMPI PUSH2 0x17A4 PUSH2 0x15BD JUMP JUMPDEST JUMPDEST POP SWAP3 SWAP2 POP POP JUMP JUMPDEST PUSH32 0x45524332303A207472616E7366657220616D6F756E7420657863656564732061 PUSH1 0x0 DUP3 ADD MSTORE PUSH32 0x6C6C6F77616E6365000000000000000000000000000000000000000000000000 PUSH1 0x20 DUP3 ADD MSTORE POP JUMP JUMPDEST PUSH1 0x0 PUSH2 0x1808 PUSH1 0x28 DUP4 PUSH2 0x1259 JUMP JUMPDEST SWAP2 POP PUSH2 0x1813 DUP3 PUSH2 0x17AC JUMP JUMPDEST PUSH1 0x40 DUP3 ADD SWAP1 POP SWAP2 SWAP1 POP JUMP JUMPDEST PUSH1 0x0 PUSH1 0x20 DUP3 ADD SWAP1 POP DUP2 DUP2 SUB PUSH1 0x0 DUP4 ADD MSTORE PUSH2 0x1837 DUP2 PUSH2 0x17FB JUMP JUMPDEST SWAP1 POP SWAP2 SWAP1 POP JUMP JUMPDEST PUSH1 0x0 PUSH2 0x1849 DUP3 PUSH2 0x1363 JUMP JUMPDEST SWAP2 POP PUSH2 0x1854 DUP4 PUSH2 0x1363 JUMP JUMPDEST SWAP3 POP DUP3 DUP3 SUB SWAP1 POP DUP2 DUP2 GT ISZERO PUSH2 0x186C JUMPI PUSH2 0x186B PUSH2 0x15BD JUMP JUMPDEST JUMPDEST SWAP3 SWAP2 POP POP JUMP JUMPDEST PUSH1 0x0 PUSH2 0x187D DUP3 PUSH2 0x1363 JUMP JUMPDEST SWAP2 POP PUSH2 0x1888 DUP4 PUSH2 0x1363 JUMP JUMPDEST SWAP3 POP DUP3 DUP3 ADD SWAP1 POP DUP1 DUP3 GT ISZERO PUSH2 0x18A0 JUMPI PUSH2 0x189F PUSH2 0x15BD JUMP JUMPDEST JUMPDEST SWAP3 SWAP2 POP POP JUMP JUMPDEST PUSH32 0x45524332303A2064656372656173656420616C6C6F77616E63652062656C6F77 PUSH1 0x0 DUP3 ADD MSTORE PUSH32 0x207A65726F000000000000000000000000000000000000000000000000000000 PUSH1 0x20 DUP3 ADD MSTORE POP JUMP JUMPDEST PUSH1 0x0 PUSH2 0x1902 PUSH1 0x25 DUP4 PUSH2 0x1259 JUMP JUMPDEST SWAP2 POP PUSH2 0x190D DUP3 PUSH2 0x18A6 JUMP JUMPDEST PUSH1 0x40 DUP3 ADD SWAP1 POP SWAP2 SWAP1 POP JUMP JUMPDEST PUSH1 0x0 PUSH1 0x20 DUP3 ADD SWAP1 POP DUP2 DUP2 SUB PUSH1 0x0 DUP4 ADD MSTORE PUSH2 0x1931 DUP2 PUSH2 0x18F5 JUMP JUMPDEST SWAP1 POP SWAP2 SWAP1 POP JUMP JUMPDEST PUSH32 0x45524332303A20617070726F76652066726F6D20746865207A65726F20616464 PUSH1 0x0 DUP3 ADD MSTORE PUSH32 0x7265737300000000000000000000000000000000000000000000000000000000 PUSH1 0x20 DUP3 ADD MSTORE POP JUMP JUMPDEST PUSH1 0x0 PUSH2 0x1994 PUSH1 0x24 DUP4 PUSH2 0x1259 JUMP JUMPDEST SWAP2 POP PUSH2 0x199F DUP3 PUSH2 0x1938 JUMP JUMPDEST PUSH1 0x40 DUP3 ADD SWAP1 POP SWAP2 SWAP1 POP JUMP JUMPDEST PUSH1 0x0 PUSH1 0x20 DUP3 ADD SWAP1 POP DUP2 DUP2 SUB PUSH1 0x0 DUP4 ADD MSTORE PUSH2 0x19C3 DUP2 PUSH2 0x1987 JUMP JUMPDEST SWAP1 POP SWAP2 SWAP1 POP JUMP JUMPDEST PUSH32 0x45524332303A20617070726F766520746F20746865207A65726F206164647265 PUSH1 0x0 DUP3 ADD MSTORE PUSH32 0x7373000000000000000000000000000000000000000000000000000000000000 PUSH1 0x20 DUP3 ADD MSTORE POP JUMP JUMPDEST PUSH1 0x0 PUSH2 0x1A26 PUSH1 0x22 DUP4 PUSH2 0x1259 JUMP JUMPDEST SWAP2 POP PUSH2 0x1A31 DUP3 PUSH2 0x19CA JUMP JUMPDEST PUSH1 0x40 DUP3 ADD SWAP1 POP SWAP2 SWAP1 POP JUMP JUMPDEST PUSH1 0x0 PUSH1 0x20 DUP3 ADD SWAP1 POP DUP2 DUP2 SUB PUSH1 0x0 DUP4 ADD MSTORE PUSH2 0x1A55 DUP2 PUSH2 0x1A19 JUMP JUMPDEST SWAP1 POP SWAP2 SWAP1 POP JUMP JUMPDEST PUSH32 0x45524332303A207472616E736665722066726F6D20746865207A65726F206164 PUSH1 0x0 DUP3 ADD MSTORE PUSH32 0x6472657373000000000000000000000000000000000000000000000000000000 PUSH1 0x20 DUP3 ADD MSTORE POP JUMP JUMPDEST PUSH1 0x0 PUSH2 0x1AB8 PUSH1 0x25 DUP4 PUSH2 0x1259 JUMP JUMPDEST SWAP2 POP PUSH2 0x1AC3 DUP3 PUSH2 0x1A5C JUMP JUMPDEST PUSH1 0x40 DUP3 ADD SWAP1 POP SWAP2 SWAP1 POP JUMP JUMPDEST PUSH1 0x0 PUSH1 0x20 DUP3 ADD SWAP1 POP DUP2 DUP2 SUB PUSH1 0x0 DUP4 ADD MSTORE PUSH2 0x1AE7 DUP2 PUSH2 0x1AAB JUMP JUMPDEST SWAP1 POP SWAP2 SWAP1 POP JUMP JUMPDEST PUSH32 0x45524332303A207472616E7366657220746F20746865207A65726F2061646472 PUSH1 0x0 DUP3 ADD MSTORE PUSH32 0x6573730000000000000000000000000000000000000000000000000000000000 PUSH1 0x20 DUP3 ADD MSTORE POP JUMP JUMPDEST PUSH1 0x0 PUSH2 0x1B4A PUSH1 0x23 DUP4 PUSH2 0x1259 JUMP JUMPDEST SWAP2 POP PUSH2 0x1B55 DUP3 PUSH2 0x1AEE JUMP JUMPDEST PUSH1 0x40 DUP3 ADD SWAP1 POP SWAP2 SWAP1 POP JUMP JUMPDEST PUSH1 0x0 PUSH1 0x20 DUP3 ADD SWAP1 POP DUP2 DUP2 SUB PUSH1 0x0 DUP4 ADD MSTORE PUSH2 0x1B79 DUP2 PUSH2 0x1B3D JUMP JUMPDEST SWAP1 POP SWAP2 SWAP1 POP JUMP JUMPDEST PUSH32 0x45524332303A207472616E7366657220616D6F756E7420657863656564732062 PUSH1 0x0 DUP3 ADD MSTORE PUSH32 0x616C616E63650000000000000000000000000000000000000000000000000000 PUSH1 0x20 DUP3 ADD MSTORE POP JUMP JUMPDEST PUSH1 0x0 PUSH2 0x1BDC PUSH1 0x26 DUP4 PUSH2 0x1259 JUMP JUMPDEST SWAP2 POP PUSH2 0x1BE7 DUP3 PUSH2 0x1B80 JUMP JUMPDEST PUSH1 0x40 DUP3 ADD SWAP1 POP SWAP2 SWAP1 POP JUMP JUMPDEST PUSH1 0x0 PUSH1 0x20 DUP3 ADD SWAP1 POP DUP2 DUP2 SUB PUSH1 0x0 DUP4 ADD MSTORE PUSH2 0x1C0B DUP2 PUSH2 0x1BCF JUMP JUMPDEST SWAP1 POP SWAP2 SWAP1 POP JUMP JUMPDEST PUSH2 0x1C1B DUP2 PUSH2 0x1325 JUMP JUMPDEST DUP3 MSTORE POP POP JUMP JUMPDEST PUSH1 0x0 PUSH1 0x60 DUP3 ADD SWAP1 POP DUP2 DUP2 SUB PUSH1 0x0 DUP4 ADD MSTORE PUSH2 0x1C3B DUP2 DUP7 PUSH2 0x12A5 JUMP JUMPDEST SWAP1 POP PUSH2 0x1C4A PUSH1 0x20 DUP4 ADD DUP6 PUSH2 0x140F JUMP JUMPDEST PUSH2 0x1C57 PUSH1 0x40 DUP4 ADD DUP5 PUSH2 0x1C12 JUMP JUMPDEST SWAP5 SWAP4 POP POP POP POP JUMP JUMPDEST PUSH32 0x45524332303A206275726E2066726F6D20746865207A65726F20616464726573 PUSH1 0x0 DUP3 ADD MSTORE PUSH32 0x7300000000000000000000000000000000000000000000000000000000000000 PUSH1 0x20 DUP3 ADD MSTORE POP JUMP JUMPDEST PUSH1 0x0 PUSH2 0x1CBB PUSH1 0x21 DUP4 PUSH2 0x1259 JUMP JUMPDEST SWAP2 POP PUSH2 0x1CC6 DUP3 PUSH2 0x1C5F JUMP JUMPDEST PUSH1 0x40 DUP3 ADD SWAP1 POP SWAP2 SWAP1 POP JUMP JUMPDEST PUSH1 0x0 PUSH1 0x20 DUP3 ADD SWAP1 POP DUP2 DUP2 SUB PUSH1 0x0 DUP4 ADD MSTORE PUSH2 0x1CEA DUP2 PUSH2 0x1CAE JUMP JUMPDEST SWAP1 POP SWAP2 SWAP1 POP JUMP JUMPDEST PUSH32 0x45524332303A206275726E20616D6F756E7420657863656564732062616C616E PUSH1 0x0 DUP3 ADD MSTORE PUSH32 0x6365000000000000000000000000000000000000000000000000000000000000 PUSH1 0x20 DUP3 ADD MSTORE POP JUMP JUMPDEST PUSH1 0x0 PUSH2 0x1D4D PUSH1 0x22 DUP4 PUSH2 0x1259 JUMP JUMPDEST SWAP2 POP PUSH2 0x1D58 DUP3 PUSH2 0x1CF1 JUMP JUMPDEST PUSH1 0x40 DUP3 ADD SWAP1 POP SWAP2 SWAP1 POP JUMP JUMPDEST PUSH1 0x0 PUSH1 0x20 DUP3 ADD SWAP1 POP DUP2 DUP2 SUB PUSH1 0x0 DUP4 ADD MSTORE PUSH2 0x1D7C DUP2 PUSH2 0x1D40 JUMP JUMPDEST SWAP1 POP SWAP2 SWAP1 POP JUMP JUMPDEST PUSH1 0x0 PUSH1 0x40 DUP3 ADD SWAP1 POP DUP2 DUP2 SUB PUSH1 0x0 DUP4 ADD MSTORE PUSH2 0x1D9D DUP2 DUP6 PUSH2 0x12A5 JUMP JUMPDEST SWAP1 POP PUSH2 0x1DAC PUSH1 0x20 DUP4 ADD DUP5 PUSH2 0x140F JUMP JUMPDEST SWAP4 SWAP3 POP POP POP JUMP JUMPDEST PUSH32 0x45524332303A206D696E7420746F20746865207A65726F206164647265737300 PUSH1 0x0 DUP3 ADD MSTORE POP JUMP JUMPDEST PUSH1 0x0 PUSH2 0x1DE9 PUSH1 0x1F DUP4 PUSH2 0x1259 JUMP JUMPDEST SWAP2 POP PUSH2 0x1DF4 DUP3 PUSH2 0x1DB3 JUMP JUMPDEST PUSH1 0x20 DUP3 ADD SWAP1 POP SWAP2 SWAP1 POP JUMP JUMPDEST PUSH1 0x0 PUSH1 0x20 DUP3 ADD SWAP1 POP DUP2 DUP2 SUB PUSH1 0x0 DUP4 ADD MSTORE PUSH2 0x1E18 DUP2 PUSH2 0x1DDC JUMP JUMPDEST SWAP1 POP SWAP2 SWAP1 POP JUMP JUMPDEST PUSH32 0x4E487B7100000000000000000000000000000000000000000000000000000000 PUSH1 0x0 MSTORE PUSH1 0x51 PUSH1 0x4 MSTORE PUSH1 0x24 PUSH1 0x0 REVERT INVALID LOG2 PUSH5 0x6970667358 0x22 SLT KECCAK256 0xB0 0xE0 0xED 0x4E 0xE0 SWAP16 PUSH12 0x2D9B45D3119F425016FF7AE2 0x5F DUP11 MSTORE8 0xF 0x25 DUP1 0x21 0xA8 0xA5 0xEE 0xC6 CALL SWAP9 PUSH5 0x736F6C6343 STOP ADDMOD SLT STOP CALLER "
		},
		"gasEstimates": {
			"creation": {
				"codeDepositCost": "1562400",
				"executionCost": "infinite",
				"totalCost": "infinite"
			},
			"external": {
				"allowance(address,address)": "infinite",
				"approve(address,uint256)": "infinite",
				"balanceOf(address)": "2864",
				"burnToken(uint256)": "infinite",
				"decimals()": "410",
				"decreaseAllowance(address,uint256)": "infinite",
				"increaseAllowance(address,uint256)": "infinite",
				"mintToken(uint256)": "infinite",
				"name()": "infinite",
				"symbol()": "infinite",
				"totalSupply()": "2460",
				"transfer(address,uint256)": "infinite",
				"transferFrom(address,address,uint256)": "infinite",
				"transferToken(address,uint256)": "infinite"
			}
		},
		"methodIdentifiers": {
			"allowance(address,address)": "dd62ed3e",
			"approve(address,uint256)": "095ea7b3",
			"balanceOf(address)": "70a08231",
			"burnToken(uint256)": "7b47ec1a",
			"decimals()": "313ce567",
			"decreaseAllowance(address,uint256)": "a457c2d7",
			"increaseAllowance(address,uint256)": "39509351",
			"mintToken(uint256)": "c634d032",
			"name()": "06fdde03",
			"symbol()": "95d89b41",
			"totalSupply()": "18160ddd",
			"transfer(address,uint256)": "a9059cbb",
			"transferFrom(address,address,uint256)": "23b872dd",
			"transferToken(address,uint256)": "1072cbea"
		}
	},
	"abi": [
		{
			"inputs": [],
			"stateMutability": "nonpayable",
			"type": "constructor"
		},
		{
			"anonymous": false,
			"inputs": [
				{
					"indexed": true,
					"internalType": "address",
					"name": "owner",
					"type": "address"
				},
				{
					"indexed": true,
					"internalType": "address",
					"name": "spender",
					"type": "address"
				},
				{
					"indexed": false,
					"internalType": "uint256",
					"name": "value",
					"type": "uint256"
				}
			],
			"name": "Approval",
			"type": "event"
		},
		{
			"anonymous": false,
			"inputs": [
				{
					"indexed": true,
					"internalType": "address",
					"name": "from",
					"type": "address"
				},
				{
					"indexed": true,
					"internalType": "address",
					"name": "to",
					"type": "address"
				},
				{
					"indexed": false,
					"internalType": "uint256",
					"name": "value",
					"type": "uint256"
				}
			],
			"name": "Transfer",
			"type": "event"
		},
		{
			"inputs": [
				{
					"internalType": "address",
					"name": "owner",
					"type": "address"
				},
				{
					"internalType": "address",
					"name": "spender",
					"type": "address"
				}
			],
			"name": "allowance",
			"outputs": [
				{
					"internalType": "uint256",
					"name": "",
					"type": "uint256"
				}
			],
			"stateMutability": "view",
			"type": "function"
		},
		{
			"inputs": [
				{
					"internalType": "address",
					"name": "spender",
					"type": "address"
				},
				{
					"internalType": "uint256",
					"name": "amount",
					"type": "uint256"
				}
			],
			"name": "approve",
			"outputs": [
				{
					"internalType": "bool",
					"name": "",
					"type": "bool"
				}
			],
			"stateMutability": "nonpayable",
			"type": "function"
		},
		{
			"inputs": [
				{
					"internalType": "address",
					"name": "account",
					"type": "address"
				}
			],
			"name": "balanceOf",
			"outputs": [
				{
					"internalType": "uint256",
					"name": "",
					"type": "uint256"
				}
			],
			"stateMutability": "view",
			"type": "function"
		},
		{
			"inputs": [
				{
					"internalType": "uint256",
					"name": "amount",
					"type": "uint256"
				}
			],
			"name": "burnToken",
			"outputs": [],
			"stateMutability": "nonpayable",
			"type": "function"
		},
		{
			"inputs": [],
			"name": "decimals",
			"outputs": [
				{
					"internalType": "uint8",
					"name": "",
					"type": "uint8"
				}
			],
			"stateMutability": "view",
			"type": "function"
		},
		{
			"inputs": [
				{
					"internalType": "address",
					"name": "spender",
					"type": "address"
				},
				{
					"internalType": "uint256",
					"name": "subtractedValue",
					"type": "uint256"
				}
			],
			"name": "decreaseAllowance",
			"outputs": [
				{
					"internalType": "bool",
					"name": "",
					"type": "bool"
				}
			],
			"stateMutability": "nonpayable",
			"type": "function"
		},
		{
			"inputs": [
				{
					"internalType": "address",
					"name": "spender",
					"type": "address"
				},
				{
					"internalType": "uint256",
					"name": "addedValue",
					"type": "uint256"
				}
			],
			"name": "increaseAllowance",
			"outputs": [
				{
					"internalType": "bool",
					"name": "",
					"type": "bool"
				}
			],
			"stateMutability": "nonpayable",
			"type": "function"
		},
		{
			"inputs": [
				{
					"internalType": "uint256",
					"name": "amount",
					"type": "uint256"
				}
			],
			"name": "mintToken",
			"outputs": [],
			"stateMutability": "nonpayable",
			"type": "function"
		},
		{
			"inputs": [],
			"name": "name",
			"outputs": [
				{
					"internalType": "string",
					"name": "",
					"type": "string"
				}
			],
			"stateMutability": "view",
			"type": "function"
		},
		{
			"inputs": [],
			"name": "symbol",
			"outputs": [
				{
					"internalType": "string",
					"name": "",
					"type": "string"
				}
			],
			"stateMutability": "view",
			"type": "function"
		},
		{
			"inputs": [],
			"name": "totalSupply",
			"outputs": [
				{
					"internalType": "uint256",
					"name": "",
					"type": "uint256"
				}
			],
			"stateMutability": "view",
			"type": "function"
		},
		{
			"inputs": [
				{
					"internalType": "address",
					"name": "recipient",
					"type": "address"
				},
				{
					"internalType": "uint256",
					"name": "amount",
					"type": "uint256"
				}
			],
			"name": "transfer",
			"outputs": [
				{
					"internalType": "bool",
					"name": "",
					"type": "bool"
				}
			],
			"stateMutability": "nonpayable",
			"type": "function"
		},
		{
			"inputs": [
				{
					"internalType": "address",
					"name": "sender",
					"type": "address"
				},
				{
					"internalType": "address",
					"name": "recipient",
					"type": "address"
				},
				{
					"internalType": "uint256",
					"name": "amount",
					"type": "uint256"
				}
			],
			"name": "transferFrom",
			"outputs": [
				{
					"internalType": "bool",
					"name": "",
					"type": "bool"
				}
			],
			"stateMutability": "nonpayable",
			"type": "function"
		},
		{
			"inputs": [
				{
					"internalType": "address",
					"name": "recipient",
					"type": "address"
				},
				{
					"internalType": "uint256",
					"name": "amount",
					"type": "uint256"
				}
			],
			"name": "transferToken",
			"outputs": [],
			"stateMutability": "nonpayable",
			"type": "function"
		}
	]
}