{
	"data": {
		"bytecode": {
			"linkReferences": {},
			"object": "608060405234801562000010575f80fd5b506040518060400160405280600a81526020017f4372616674546f6b656e000000000000000000000000000000000000000000008152506040518060400160405280600281526020017f435400000000000000000000000000000000000000000000000000000000000081525081600390816200008e9190620003f7565b508060049081620000a09190620003f7565b505050620000c3620000b7620000c960201b60201c565b620000d060201b60201c565b620004db565b5f33905090565b5f60055f9054906101000a900473ffffffffffffffffffffffffffffffffffffffff1690508160055f6101000a81548173ffffffffffffffffffffffffffffffffffffffff021916908373ffffffffffffffffffffffffffffffffffffffff1602179055508173ffffffffffffffffffffffffffffffffffffffff168173ffffffffffffffffffffffffffffffffffffffff167f8be0079c531659141344cd1fd0a4f28419497f9722a3daafe3b4186f6b6457e060405160405180910390a35050565b5f81519050919050565b7f4e487b71000000000000000000000000000000000000000000000000000000005f52604160045260245ffd5b7f4e487b71000000000000000000000000000000000000000000000000000000005f52602260045260245ffd5b5f60028204905060018216806200020f57607f821691505b602082108103620002255762000224620001ca565b5b50919050565b5f819050815f5260205f209050919050565b5f6020601f8301049050919050565b5f82821b905092915050565b5f60088302620002897fffffffffffffffffffffffffffffffffffffffffffffffffffffffffffffffff826200024c565b6200029586836200024c565b95508019841693508086168417925050509392505050565b5f819050919050565b5f819050919050565b5f620002df620002d9620002d384620002ad565b620002b6565b620002ad565b9050919050565b5f819050919050565b620002fa83620002bf565b620003126200030982620002e6565b84845462000258565b825550505050565b5f90565b620003286200031a565b62000335818484620002ef565b505050565b5b818110156200035c57620003505f826200031e565b6001810190506200033b565b5050565b601f821115620003ab5762000375816200022b565b62000380846200023d565b8101602085101562000390578190505b620003a86200039f856200023d565b8301826200033a565b50505b505050565b5f82821c905092915050565b5f620003cd5f1984600802620003b0565b1980831691505092915050565b5f620003e78383620003bc565b9150826002028217905092915050565b620004028262000193565b67ffffffffffffffff8111156200041e576200041d6200019d565b5b6200042a8254620001f7565b6200043782828562000360565b5f60209050601f8311600181146200046d575f841562000458578287015190505b620004648582620003da565b865550620004d3565b601f1984166200047d866200022b565b5f5b82811015620004a6578489015182556001820191506020850194506020810190506200047f565b86831015620004c65784890151620004c2601f891682620003bc565b8355505b6001600288020188555050505b505050505050565b61184d80620004e95f395ff3fe608060405234801561000f575f80fd5b50600436106100f3575f3560e01c8063715018a611610095578063a9059cbb11610064578063a9059cbb1461025f578063c634d0321461028f578063dd62ed3e146102ab578063f2fde38b146102db576100f3565b8063715018a6146101fd5780637b47ec1a146102075780638da5cb5b1461022357806395d89b4114610241576100f3565b806318160ddd116100d157806318160ddd1461016157806323b872dd1461017f578063313ce567146101af57806370a08231146101cd576100f3565b806306fdde03146100f7578063095ea7b3146101155780631072cbea14610145575b5f80fd5b6100ff6102f7565b60405161010c9190611154565b60405180910390f35b61012f600480360381019061012a9190611205565b610387565b60405161013c919061125d565b60405180910390f35b61015f600480360381019061015a9190611205565b6103a9565b005b61016961041e565b6040516101769190611285565b60405180910390f35b6101996004803603810190610194919061129e565b610427565b6040516101a6919061125d565b60405180910390f35b6101b7610455565b6040516101c49190611309565b60405180910390f35b6101e760048036038101906101e29190611322565b61045d565b6040516101f49190611285565b60405180910390f35b6102056104a2565b005b610221600480360381019061021c919061134d565b6104b5565b005b61022b610527565b6040516102389190611387565b60405180910390f35b61024961054f565b6040516102569190611154565b60405180910390f35b61027960048036038101906102749190611205565b6105df565b604051610286919061125d565b60405180910390f35b6102a960048036038101906102a4919061134d565b610601565b005b6102c560048036038101906102c091906113a0565b61067b565b6040516102d29190611285565b60405180910390f35b6102f560048036038101906102f09190611322565b6106fd565b005b6060600380546103069061140b565b80601f01602080910402602001604051908101604052809291908181526020018280546103329061140b565b801561037d5780601f106103545761010080835404028352916020019161037d565b820191905f5260205f20905b81548152906001019060200180831161036057829003601f168201915b5050505050905090565b5f8061039161077f565b905061039e818585610786565b600191505092915050565b5f6103b2610455565b60ff16600a6103c19190611597565b826103cc91906115e1565b90506103d9338483610798565b6104196040518060400160405280601a81526020017f596f75207472616e73666572656420257320435420746f2025730000000000008152508385610888565b505050565b5f600254905090565b5f8061043161077f565b905061043e858285610927565b610449858585610798565b60019150509392505050565b5f6012905090565b5f805f8373ffffffffffffffffffffffffffffffffffffffff1673ffffffffffffffffffffffffffffffffffffffff1681526020019081526020015f20549050919050565b6104aa6109b9565b6104b35f610a37565b565b5f6104be610455565b60ff16600a6104cd9190611597565b826104d891906115e1565b90506104e43382610afa565b6105236040518060400160405280601581526020017f596f75206275726e656420257320746f6b656e732e000000000000000000000081525083610b79565b5050565b5f60055f9054906101000a900473ffffffffffffffffffffffffffffffffffffffff16905090565b60606004805461055e9061140b565b80601f016020809104026020016040519081016040528092919081815260200182805461058a9061140b565b80156105d55780601f106105ac576101008083540402835291602001916105d5565b820191905f5260205f20905b8154815290600101906020018083116105b857829003601f168201915b5050505050905090565b5f806105e961077f565b90506105f6818585610798565b600191505092915050565b6106096109b9565b5f610612610455565b60ff16600a6106219190611597565b8261062c91906115e1565b90506106383382610c15565b6106776040518060400160405280601481526020017f596f75206d696e74656420257320746f6b656e7300000000000000000000000081525083610b79565b5050565b5f60015f8473ffffffffffffffffffffffffffffffffffffffff1673ffffffffffffffffffffffffffffffffffffffff1681526020019081526020015f205f8373ffffffffffffffffffffffffffffffffffffffff1673ffffffffffffffffffffffffffffffffffffffff1681526020019081526020015f2054905092915050565b6107056109b9565b5f73ffffffffffffffffffffffffffffffffffffffff168173ffffffffffffffffffffffffffffffffffffffff1603610773576040517f08c379a000000000000000000000000000000000000000000000000000000000815260040161076a90611692565b60405180910390fd5b61077c81610a37565b50565b5f33905090565b6107938383836001610c94565b505050565b5f73ffffffffffffffffffffffffffffffffffffffff168373ffffffffffffffffffffffffffffffffffffffff1603610808575f6040517f96c6fd1e0000000000000000000000000000000000000000000000000000000081526004016107ff9190611387565b60405180910390fd5b5f73ffffffffffffffffffffffffffffffffffffffff168273ffffffffffffffffffffffffffffffffffffffff1603610878575f6040517fec442f0500000000000000000000000000000000000000000000000000000000815260040161086f9190611387565b60405180910390fd5b610883838383610e63565b505050565b6109228383836040516024016108a0939291906116b0565b6040516020818303038152906040527f1c7ec448000000000000000000000000000000000000000000000000000000007bffffffffffffffffffffffffffffffffffffffffffffffffffffffff19166020820180517bffffffffffffffffffffffffffffffffffffffffffffffffffffffff838183161783525050505061107c565b505050565b5f610932848461067b565b90507fffffffffffffffffffffffffffffffffffffffffffffffffffffffffffffffff81146109b357818110156109a4578281836040517ffb8f41b200000000000000000000000000000000000000000000000000000000815260040161099b939291906116ec565b60405180910390fd5b6109b284848484035f610c94565b5b50505050565b6109c161077f565b73ffffffffffffffffffffffffffffffffffffffff166109df610527565b73ffffffffffffffffffffffffffffffffffffffff1614610a35576040517f08c379a0000000000000000000000000000000000000000000000000000000008152600401610a2c9061176b565b60405180910390fd5b565b5f60055f9054906101000a900473ffffffffffffffffffffffffffffffffffffffff1690508160055f6101000a81548173ffffffffffffffffffffffffffffffffffffffff021916908373ffffffffffffffffffffffffffffffffffffffff1602179055508173ffffffffffffffffffffffffffffffffffffffff168173ffffffffffffffffffffffffffffffffffffffff167f8be0079c531659141344cd1fd0a4f28419497f9722a3daafe3b4186f6b6457e060405160405180910390a35050565b5f73ffffffffffffffffffffffffffffffffffffffff168273ffffffffffffffffffffffffffffffffffffffff1603610b6a575f6040517f96c6fd1e000000000000000000000000000000000000000000000000000000008152600401610b619190611387565b60405180910390fd5b610b75825f83610e63565b5050565b610c118282604051602401610b8f929190611789565b6040516020818303038152906040527fb60e72cc000000000000000000000000000000000000000000000000000000007bffffffffffffffffffffffffffffffffffffffffffffffffffffffff19166020820180517bffffffffffffffffffffffffffffffffffffffffffffffffffffffff838183161783525050505061107c565b5050565b5f73ffffffffffffffffffffffffffffffffffffffff168273ffffffffffffffffffffffffffffffffffffffff1603610c85575f6040517fec442f05000000000000000000000000000000000000000000000000000000008152600401610c7c9190611387565b60405180910390fd5b610c905f8383610e63565b5050565b5f73ffffffffffffffffffffffffffffffffffffffff168473ffffffffffffffffffffffffffffffffffffffff1603610d04575f6040517fe602df05000000000000000000000000000000000000000000000000000000008152600401610cfb9190611387565b60405180910390fd5b5f73ffffffffffffffffffffffffffffffffffffffff168373ffffffffffffffffffffffffffffffffffffffff1603610d74575f6040517f94280d62000000000000000000000000000000000000000000000000000000008152600401610d6b9190611387565b60405180910390fd5b8160015f8673ffffffffffffffffffffffffffffffffffffffff1673ffffffffffffffffffffffffffffffffffffffff1681526020019081526020015f205f8573ffffffffffffffffffffffffffffffffffffffff1673ffffffffffffffffffffffffffffffffffffffff1681526020019081526020015f20819055508015610e5d578273ffffffffffffffffffffffffffffffffffffffff168473ffffffffffffffffffffffffffffffffffffffff167f8c5be1e5ebec7d5bd14f71427d1e84f3dd0314c0f7b2291e5b200ac8c7c3b92584604051610e549190611285565b60405180910390a35b50505050565b5f73ffffffffffffffffffffffffffffffffffffffff168373ffffffffffffffffffffffffffffffffffffffff1603610eb3578060025f828254610ea791906117b7565b92505081905550610f81565b5f805f8573ffffffffffffffffffffffffffffffffffffffff1673ffffffffffffffffffffffffffffffffffffffff1681526020019081526020015f2054905081811015610f3c578381836040517fe450d38c000000000000000000000000000000000000000000000000000000008152600401610f33939291906116ec565b60405180910390fd5b8181035f808673ffffffffffffffffffffffffffffffffffffffff1673ffffffffffffffffffffffffffffffffffffffff1681526020019081526020015f2081905550505b5f73ffffffffffffffffffffffffffffffffffffffff168273ffffffffffffffffffffffffffffffffffffffff1603610fc8578060025f8282540392505081905550611012565b805f808473ffffffffffffffffffffffffffffffffffffffff1673ffffffffffffffffffffffffffffffffffffffff1681526020019081526020015f205f82825401925050819055505b8173ffffffffffffffffffffffffffffffffffffffff168373ffffffffffffffffffffffffffffffffffffffff167fddf252ad1be2c89b69c2b068fc378daa952ba7f163c4a11628f55a4df523b3ef8360405161106f9190611285565b60405180910390a3505050565b6110938161108b6110966110b5565b63ffffffff16565b50565b5f6a636f6e736f6c652e6c6f6790505f80835160208501845afa505050565b6110c0819050919050565b6110c86117ea565b565b5f81519050919050565b5f82825260208201905092915050565b5f5b838110156111015780820151818401526020810190506110e6565b5f8484015250505050565b5f601f19601f8301169050919050565b5f611126826110ca565b61113081856110d4565b93506111408185602086016110e4565b6111498161110c565b840191505092915050565b5f6020820190508181035f83015261116c818461111c565b905092915050565b5f80fd5b5f73ffffffffffffffffffffffffffffffffffffffff82169050919050565b5f6111a182611178565b9050919050565b6111b181611197565b81146111bb575f80fd5b50565b5f813590506111cc816111a8565b92915050565b5f819050919050565b6111e4816111d2565b81146111ee575f80fd5b50565b5f813590506111ff816111db565b92915050565b5f806040838503121561121b5761121a611174565b5b5f611228858286016111be565b9250506020611239858286016111f1565b9150509250929050565b5f8115159050919050565b61125781611243565b82525050565b5f6020820190506112705f83018461124e565b92915050565b61127f816111d2565b82525050565b5f6020820190506112985f830184611276565b92915050565b5f805f606084860312156112b5576112b4611174565b5b5f6112c2868287016111be565b93505060206112d3868287016111be565b92505060406112e4868287016111f1565b9150509250925092565b5f60ff82169050919050565b611303816112ee565b82525050565b5f60208201905061131c5f8301846112fa565b92915050565b5f6020828403121561133757611336611174565b5b5f611344848285016111be565b91505092915050565b5f6020828403121561136257611361611174565b5b5f61136f848285016111f1565b91505092915050565b61138181611197565b82525050565b5f60208201905061139a5f830184611378565b92915050565b5f80604083850312156113b6576113b5611174565b5b5f6113c3858286016111be565b92505060206113d4858286016111be565b9150509250929050565b7f4e487b71000000000000000000000000000000000000000000000000000000005f52602260045260245ffd5b5f600282049050600182168061142257607f821691505b602082108103611435576114346113de565b5b50919050565b7f4e487b71000000000000000000000000000000000000000000000000000000005f52601160045260245ffd5b5f8160011c9050919050565b5f808291508390505b60018511156114bd578086048111156114995761149861143b565b5b60018516156114a85780820291505b80810290506114b685611468565b945061147d565b94509492505050565b5f826114d55760019050611590565b816114e2575f9050611590565b81600181146114f8576002811461150257611531565b6001915050611590565b60ff8411156115145761151361143b565b5b8360020a91508482111561152b5761152a61143b565b5b50611590565b5060208310610133831016604e8410600b84101617156115665782820a9050838111156115615761156061143b565b5b611590565b6115738484846001611474565b9250905081840481111561158a5761158961143b565b5b81810290505b9392505050565b5f6115a1826111d2565b91506115ac836111d2565b92506115d97fffffffffffffffffffffffffffffffffffffffffffffffffffffffffffffffff84846114c6565b905092915050565b5f6115eb826111d2565b91506115f6836111d2565b9250828202611604816111d2565b9150828204841483151761161b5761161a61143b565b5b5092915050565b7f4f776e61626c653a206e6577206f776e657220697320746865207a65726f20615f8201527f6464726573730000000000000000000000000000000000000000000000000000602082015250565b5f61167c6026836110d4565b915061168782611622565b604082019050919050565b5f6020820190508181035f8301526116a981611670565b9050919050565b5f6060820190508181035f8301526116c8818661111c565b90506116d76020830185611276565b6116e46040830184611378565b949350505050565b5f6060820190506116ff5f830186611378565b61170c6020830185611276565b6117196040830184611276565b949350505050565b7f4f776e61626c653a2063616c6c6572206973206e6f7420746865206f776e65725f82015250565b5f6117556020836110d4565b915061176082611721565b602082019050919050565b5f6020820190508181035f83015261178281611749565b9050919050565b5f6040820190508181035f8301526117a1818561111c565b90506117b06020830184611276565b9392505050565b5f6117c1826111d2565b91506117cc836111d2565b92508282019050808211156117e4576117e361143b565b5b92915050565b7f4e487b71000000000000000000000000000000000000000000000000000000005f52605160045260245ffdfea26469706673582212209384b480fd3d385556ef85be60c91157854af8155b55533e8692070149a283f864736f6c63430008140033",
			"opcodes": "PUSH1 0x80 PUSH1 0x40 MSTORE CALLVALUE DUP1 ISZERO PUSH3 0x10 JUMPI PUSH0 DUP1 REVERT JUMPDEST POP PUSH1 0x40 MLOAD DUP1 PUSH1 0x40 ADD PUSH1 0x40 MSTORE DUP1 PUSH1 0xA DUP2 MSTORE PUSH1 0x20 ADD PUSH32 0x4372616674546F6B656E00000000000000000000000000000000000000000000 DUP2 MSTORE POP PUSH1 0x40 MLOAD DUP1 PUSH1 0x40 ADD PUSH1 0x40 MSTORE DUP1 PUSH1 0x2 DUP2 MSTORE PUSH1 0x20 ADD PUSH32 0x4354000000000000000000000000000000000000000000000000000000000000 DUP2 MSTORE POP DUP2 PUSH1 0x3 SWAP1 DUP2 PUSH3 0x8E SWAP2 SWAP1 PUSH3 0x3F7 JUMP JUMPDEST POP DUP1 PUSH1 0x4 SWAP1 DUP2 PUSH3 0xA0 SWAP2 SWAP1 PUSH3 0x3F7 JUMP JUMPDEST POP POP POP PUSH3 0xC3 PUSH3 0xB7 PUSH3 0xC9 PUSH1 0x20 SHL PUSH1 0x20 SHR JUMP JUMPDEST PUSH3 0xD0 PUSH1 0x20 SHL PUSH1 0x20 SHR JUMP JUMPDEST PUSH3 0x4DB JUMP JUMPDEST PUSH0 CALLER SWAP1 POP SWAP1 JUMP JUMPDEST PUSH0 PUSH1 0x5 PUSH0 SWAP1 SLOAD SWAP1 PUSH2 0x100 EXP SWAP1 DIV PUSH20 0xFFFFFFFFFFFFFFFFFFFFFFFFFFFFFFFFFFFFFFFF AND SWAP1 POP DUP2 PUSH1 0x5 PUSH0 PUSH2 0x100 EXP DUP2 SLOAD DUP2 PUSH20 0xFFFFFFFFFFFFFFFFFFFFFFFFFFFFFFFFFFFFFFFF MUL NOT AND SWAP1 DUP4 PUSH20 0xFFFFFFFFFFFFFFFFFFFFFFFFFFFFFFFFFFFFFFFF AND MUL OR SWAP1 SSTORE POP DUP2 PUSH20 0xFFFFFFFFFFFFFFFFFFFFFFFFFFFFFFFFFFFFFFFF AND DUP2 PUSH20 0xFFFFFFFFFFFFFFFFFFFFFFFFFFFFFFFFFFFFFFFF AND PUSH32 0x8BE0079C531659141344CD1FD0A4F28419497F9722A3DAAFE3B4186F6B6457E0 PUSH1 0x40 MLOAD PUSH1 0x40 MLOAD DUP1 SWAP2 SUB SWAP1 LOG3 POP POP JUMP JUMPDEST PUSH0 DUP2 MLOAD SWAP1 POP SWAP2 SWAP1 POP JUMP JUMPDEST PUSH32 0x4E487B7100000000000000000000000000000000000000000000000000000000 PUSH0 MSTORE PUSH1 0x41 PUSH1 0x4 MSTORE PUSH1 0x24 PUSH0 REVERT JUMPDEST PUSH32 0x4E487B7100000000000000000000000000000000000000000000000000000000 PUSH0 MSTORE PUSH1 0x22 PUSH1 0x4 MSTORE PUSH1 0x24 PUSH0 REVERT JUMPDEST PUSH0 PUSH1 0x2 DUP3 DIV SWAP1 POP PUSH1 0x1 DUP3 AND DUP1 PUSH3 0x20F JUMPI PUSH1 0x7F DUP3 AND SWAP2 POP JUMPDEST PUSH1 0x20 DUP3 LT DUP2 SUB PUSH3 0x225 JUMPI PUSH3 0x224 PUSH3 0x1CA JUMP JUMPDEST JUMPDEST POP SWAP2 SWAP1 POP JUMP JUMPDEST PUSH0 DUP2 SWAP1 POP DUP2 PUSH0 MSTORE PUSH1 0x20 PUSH0 KECCAK256 SWAP1 POP SWAP2 SWAP1 POP JUMP JUMPDEST PUSH0 PUSH1 0x20 PUSH1 0x1F DUP4 ADD DIV SWAP1 POP SWAP2 SWAP1 POP JUMP JUMPDEST PUSH0 DUP3 DUP3 SHL SWAP1 POP SWAP3 SWAP2 POP POP JUMP JUMPDEST PUSH0 PUSH1 0x8 DUP4 MUL PUSH3 0x289 PUSH32 0xFFFFFFFFFFFFFFFFFFFFFFFFFFFFFFFFFFFFFFFFFFFFFFFFFFFFFFFFFFFFFFFF DUP3 PUSH3 0x24C JUMP JUMPDEST PUSH3 0x295 DUP7 DUP4 PUSH3 0x24C JUMP JUMPDEST SWAP6 POP DUP1 NOT DUP5 AND SWAP4 POP DUP1 DUP7 AND DUP5 OR SWAP3 POP POP POP SWAP4 SWAP3 POP POP POP JUMP JUMPDEST PUSH0 DUP2 SWAP1 POP SWAP2 SWAP1 POP JUMP JUMPDEST PUSH0 DUP2 SWAP1 POP SWAP2 SWAP1 POP JUMP JUMPDEST PUSH0 PUSH3 0x2DF PUSH3 0x2D9 PUSH3 0x2D3 DUP5 PUSH3 0x2AD JUMP JUMPDEST PUSH3 0x2B6 JUMP JUMPDEST PUSH3 0x2AD JUMP JUMPDEST SWAP1 POP SWAP2 SWAP1 POP JUMP JUMPDEST PUSH0 DUP2 SWAP1 POP SWAP2 SWAP1 POP JUMP JUMPDEST PUSH3 0x2FA DUP4 PUSH3 0x2BF JUMP JUMPDEST PUSH3 0x312 PUSH3 0x309 DUP3 PUSH3 0x2E6 JUMP JUMPDEST DUP5 DUP5 SLOAD PUSH3 0x258 JUMP JUMPDEST DUP3 SSTORE POP POP POP POP JUMP JUMPDEST PUSH0 SWAP1 JUMP JUMPDEST PUSH3 0x328 PUSH3 0x31A JUMP JUMPDEST PUSH3 0x335 DUP2 DUP5 DUP5 PUSH3 0x2EF JUMP JUMPDEST POP POP POP JUMP JUMPDEST JUMPDEST DUP2 DUP2 LT ISZERO PUSH3 0x35C JUMPI PUSH3 0x350 PUSH0 DUP3 PUSH3 0x31E JUMP JUMPDEST PUSH1 0x1 DUP2 ADD SWAP1 POP PUSH3 0x33B JUMP JUMPDEST POP POP JUMP JUMPDEST PUSH1 0x1F DUP3 GT ISZERO PUSH3 0x3AB JUMPI PUSH3 0x375 DUP2 PUSH3 0x22B JUMP JUMPDEST PUSH3 0x380 DUP5 PUSH3 0x23D JUMP JUMPDEST DUP2 ADD PUSH1 0x20 DUP6 LT ISZERO PUSH3 0x390 JUMPI DUP2 SWAP1 POP JUMPDEST PUSH3 0x3A8 PUSH3 0x39F DUP6 PUSH3 0x23D JUMP JUMPDEST DUP4 ADD DUP3 PUSH3 0x33A JUMP JUMPDEST POP POP JUMPDEST POP POP POP JUMP JUMPDEST PUSH0 DUP3 DUP3 SHR SWAP1 POP SWAP3 SWAP2 POP POP JUMP JUMPDEST PUSH0 PUSH3 0x3CD PUSH0 NOT DUP5 PUSH1 0x8 MUL PUSH3 0x3B0 JUMP JUMPDEST NOT DUP1 DUP4 AND SWAP2 POP POP SWAP3 SWAP2 POP POP JUMP JUMPDEST PUSH0 PUSH3 0x3E7 DUP4 DUP4 PUSH3 0x3BC JUMP JUMPDEST SWAP2 POP DUP3 PUSH1 0x2 MUL DUP3 OR SWAP1 POP SWAP3 SWAP2 POP POP JUMP JUMPDEST PUSH3 0x402 DUP3 PUSH3 0x193 JUMP JUMPDEST PUSH8 0xFFFFFFFFFFFFFFFF DUP2 GT ISZERO PUSH3 0x41E JUMPI PUSH3 0x41D PUSH3 0x19D JUMP JUMPDEST JUMPDEST PUSH3 0x42A DUP3 SLOAD PUSH3 0x1F7 JUMP JUMPDEST PUSH3 0x437 DUP3 DUP3 DUP6 PUSH3 0x360 JUMP JUMPDEST PUSH0 PUSH1 0x20 SWAP1 POP PUSH1 0x1F DUP4 GT PUSH1 0x1 DUP2 EQ PUSH3 0x46D JUMPI PUSH0 DUP5 ISZERO PUSH3 0x458 JUMPI DUP3 DUP8 ADD MLOAD SWAP1 POP JUMPDEST PUSH3 0x464 DUP6 DUP3 PUSH3 0x3DA JUMP JUMPDEST DUP7 SSTORE POP PUSH3 0x4D3 JUMP JUMPDEST PUSH1 0x1F NOT DUP5 AND PUSH3 0x47D DUP7 PUSH3 0x22B JUMP JUMPDEST PUSH0 JUMPDEST DUP3 DUP2 LT ISZERO PUSH3 0x4A6 JUMPI DUP5 DUP10 ADD MLOAD DUP3 SSTORE PUSH1 0x1 DUP3 ADD SWAP2 POP PUSH1 0x20 DUP6 ADD SWAP5 POP PUSH1 0x20 DUP2 ADD SWAP1 POP PUSH3 0x47F JUMP JUMPDEST DUP7 DUP4 LT ISZERO PUSH3 0x4C6 JUMPI DUP5 DUP10 ADD MLOAD PUSH3 0x4C2 PUSH1 0x1F DUP10 AND DUP3 PUSH3 0x3BC JUMP JUMPDEST DUP4 SSTORE POP JUMPDEST PUSH1 0x1 PUSH1 0x2 DUP9 MUL ADD DUP9 SSTORE POP POP POP JUMPDEST POP POP POP POP POP POP JUMP JUMPDEST PUSH2 0x184D DUP1 PUSH3 0x4E9 PUSH0 CODECOPY PUSH0 RETURN INVALID PUSH1 0x80 PUSH1 0x40 MSTORE CALLVALUE DUP1 ISZERO PUSH2 0xF JUMPI PUSH0 DUP1 REVERT JUMPDEST POP PUSH1 0x4 CALLDATASIZE LT PUSH2 0xF3 JUMPI PUSH0 CALLDATALOAD PUSH1 0xE0 SHR DUP1 PUSH4 0x715018A6 GT PUSH2 0x95 JUMPI DUP1 PUSH4 0xA9059CBB GT PUSH2 0x64 JUMPI DUP1 PUSH4 0xA9059CBB EQ PUSH2 0x25F JUMPI DUP1 PUSH4 0xC634D032 EQ PUSH2 0x28F JUMPI DUP1 PUSH4 0xDD62ED3E EQ PUSH2 0x2AB JUMPI DUP1 PUSH4 0xF2FDE38B EQ PUSH2 0x2DB JUMPI PUSH2 0xF3 JUMP JUMPDEST DUP1 PUSH4 0x715018A6 EQ PUSH2 0x1FD JUMPI DUP1 PUSH4 0x7B47EC1A EQ PUSH2 0x207 JUMPI DUP1 PUSH4 0x8DA5CB5B EQ PUSH2 0x223 JUMPI DUP1 PUSH4 0x95D89B41 EQ PUSH2 0x241 JUMPI PUSH2 0xF3 JUMP JUMPDEST DUP1 PUSH4 0x18160DDD GT PUSH2 0xD1 JUMPI DUP1 PUSH4 0x18160DDD EQ PUSH2 0x161 JUMPI DUP1 PUSH4 0x23B872DD EQ PUSH2 0x17F JUMPI DUP1 PUSH4 0x313CE567 EQ PUSH2 0x1AF JUMPI DUP1 PUSH4 0x70A08231 EQ PUSH2 0x1CD JUMPI PUSH2 0xF3 JUMP JUMPDEST DUP1 PUSH4 0x6FDDE03 EQ PUSH2 0xF7 JUMPI DUP1 PUSH4 0x95EA7B3 EQ PUSH2 0x115 JUMPI DUP1 PUSH4 0x1072CBEA EQ PUSH2 0x145 JUMPI JUMPDEST PUSH0 DUP1 REVERT JUMPDEST PUSH2 0xFF PUSH2 0x2F7 JUMP JUMPDEST PUSH1 0x40 MLOAD PUSH2 0x10C SWAP2 SWAP1 PUSH2 0x1154 JUMP JUMPDEST PUSH1 0x40 MLOAD DUP1 SWAP2 SUB SWAP1 RETURN JUMPDEST PUSH2 0x12F PUSH1 0x4 DUP1 CALLDATASIZE SUB DUP2 ADD SWAP1 PUSH2 0x12A SWAP2 SWAP1 PUSH2 0x1205 JUMP JUMPDEST PUSH2 0x387 JUMP JUMPDEST PUSH1 0x40 MLOAD PUSH2 0x13C SWAP2 SWAP1 PUSH2 0x125D JUMP JUMPDEST PUSH1 0x40 MLOAD DUP1 SWAP2 SUB SWAP1 RETURN JUMPDEST PUSH2 0x15F PUSH1 0x4 DUP1 CALLDATASIZE SUB DUP2 ADD SWAP1 PUSH2 0x15A SWAP2 SWAP1 PUSH2 0x1205 JUMP JUMPDEST PUSH2 0x3A9 JUMP JUMPDEST STOP JUMPDEST PUSH2 0x169 PUSH2 0x41E JUMP JUMPDEST PUSH1 0x40 MLOAD PUSH2 0x176 SWAP2 SWAP1 PUSH2 0x1285 JUMP JUMPDEST PUSH1 0x40 MLOAD DUP1 SWAP2 SUB SWAP1 RETURN JUMPDEST PUSH2 0x199 PUSH1 0x4 DUP1 CALLDATASIZE SUB DUP2 ADD SWAP1 PUSH2 0x194 SWAP2 SWAP1 PUSH2 0x129E JUMP JUMPDEST PUSH2 0x427 JUMP JUMPDEST PUSH1 0x40 MLOAD PUSH2 0x1A6 SWAP2 SWAP1 PUSH2 0x125D JUMP JUMPDEST PUSH1 0x40 MLOAD DUP1 SWAP2 SUB SWAP1 RETURN JUMPDEST PUSH2 0x1B7 PUSH2 0x455 JUMP JUMPDEST PUSH1 0x40 MLOAD PUSH2 0x1C4 SWAP2 SWAP1 PUSH2 0x1309 JUMP JUMPDEST PUSH1 0x40 MLOAD DUP1 SWAP2 SUB SWAP1 RETURN JUMPDEST PUSH2 0x1E7 PUSH1 0x4 DUP1 CALLDATASIZE SUB DUP2 ADD SWAP1 PUSH2 0x1E2 SWAP2 SWAP1 PUSH2 0x1322 JUMP JUMPDEST PUSH2 0x45D JUMP JUMPDEST PUSH1 0x40 MLOAD PUSH2 0x1F4 SWAP2 SWAP1 PUSH2 0x1285 JUMP JUMPDEST PUSH1 0x40 MLOAD DUP1 SWAP2 SUB SWAP1 RETURN JUMPDEST PUSH2 0x205 PUSH2 0x4A2 JUMP JUMPDEST STOP JUMPDEST PUSH2 0x221 PUSH1 0x4 DUP1 CALLDATASIZE SUB DUP2 ADD SWAP1 PUSH2 0x21C SWAP2 SWAP1 PUSH2 0x134D JUMP JUMPDEST PUSH2 0x4B5 JUMP JUMPDEST STOP JUMPDEST PUSH2 0x22B PUSH2 0x527 JUMP JUMPDEST PUSH1 0x40 MLOAD PUSH2 0x238 SWAP2 SWAP1 PUSH2 0x1387 JUMP JUMPDEST PUSH1 0x40 MLOAD DUP1 SWAP2 SUB SWAP1 RETURN JUMPDEST PUSH2 0x249 PUSH2 0x54F JUMP JUMPDEST PUSH1 0x40 MLOAD PUSH2 0x256 SWAP2 SWAP1 PUSH2 0x1154 JUMP JUMPDEST PUSH1 0x40 MLOAD DUP1 SWAP2 SUB SWAP1 RETURN JUMPDEST PUSH2 0x279 PUSH1 0x4 DUP1 CALLDATASIZE SUB DUP2 ADD SWAP1 PUSH2 0x274 SWAP2 SWAP1 PUSH2 0x1205 JUMP JUMPDEST PUSH2 0x5DF JUMP JUMPDEST PUSH1 0x40 MLOAD PUSH2 0x286 SWAP2 SWAP1 PUSH2 0x125D JUMP JUMPDEST PUSH1 0x40 MLOAD DUP1 SWAP2 SUB SWAP1 RETURN JUMPDEST PUSH2 0x2A9 PUSH1 0x4 DUP1 CALLDATASIZE SUB DUP2 ADD SWAP1 PUSH2 0x2A4 SWAP2 SWAP1 PUSH2 0x134D JUMP JUMPDEST PUSH2 0x601 JUMP JUMPDEST STOP JUMPDEST PUSH2 0x2C5 PUSH1 0x4 DUP1 CALLDATASIZE SUB DUP2 ADD SWAP1 PUSH2 0x2C0 SWAP2 SWAP1 PUSH2 0x13A0 JUMP JUMPDEST PUSH2 0x67B JUMP JUMPDEST PUSH1 0x40 MLOAD PUSH2 0x2D2 SWAP2 SWAP1 PUSH2 0x1285 JUMP JUMPDEST PUSH1 0x40 MLOAD DUP1 SWAP2 SUB SWAP1 RETURN JUMPDEST PUSH2 0x2F5 PUSH1 0x4 DUP1 CALLDATASIZE SUB DUP2 ADD SWAP1 PUSH2 0x2F0 SWAP2 SWAP1 PUSH2 0x1322 JUMP JUMPDEST PUSH2 0x6FD JUMP JUMPDEST STOP JUMPDEST PUSH1 0x60 PUSH1 0x3 DUP1 SLOAD PUSH2 0x306 SWAP1 PUSH2 0x140B JUMP JUMPDEST DUP1 PUSH1 0x1F ADD PUSH1 0x20 DUP1 SWAP2 DIV MUL PUSH1 0x20 ADD PUSH1 0x40 MLOAD SWAP1 DUP2 ADD PUSH1 0x40 MSTORE DUP1 SWAP3 SWAP2 SWAP1 DUP2 DUP2 MSTORE PUSH1 0x20 ADD DUP3 DUP1 SLOAD PUSH2 0x332 SWAP1 PUSH2 0x140B JUMP JUMPDEST DUP1 ISZERO PUSH2 0x37D JUMPI DUP1 PUSH1 0x1F LT PUSH2 0x354 JUMPI PUSH2 0x100 DUP1 DUP4 SLOAD DIV MUL DUP4 MSTORE SWAP2 PUSH1 0x20 ADD SWAP2 PUSH2 0x37D JUMP JUMPDEST DUP3 ADD SWAP2 SWAP1 PUSH0 MSTORE PUSH1 0x20 PUSH0 KECCAK256 SWAP1 JUMPDEST DUP2 SLOAD DUP2 MSTORE SWAP1 PUSH1 0x1 ADD SWAP1 PUSH1 0x20 ADD DUP1 DUP4 GT PUSH2 0x360 JUMPI DUP3 SWAP1 SUB PUSH1 0x1F AND DUP3 ADD SWAP2 JUMPDEST POP POP POP POP POP SWAP1 POP SWAP1 JUMP JUMPDEST PUSH0 DUP1 PUSH2 0x391 PUSH2 0x77F JUMP JUMPDEST SWAP1 POP PUSH2 0x39E DUP2 DUP6 DUP6 PUSH2 0x786 JUMP JUMPDEST PUSH1 0x1 SWAP2 POP POP SWAP3 SWAP2 POP POP JUMP JUMPDEST PUSH0 PUSH2 0x3B2 PUSH2 0x455 JUMP JUMPDEST PUSH1 0xFF AND PUSH1 0xA PUSH2 0x3C1 SWAP2 SWAP1 PUSH2 0x1597 JUMP JUMPDEST DUP3 PUSH2 0x3CC SWAP2 SWAP1 PUSH2 0x15E1 JUMP JUMPDEST SWAP1 POP PUSH2 0x3D9 CALLER DUP5 DUP4 PUSH2 0x798 JUMP JUMPDEST PUSH2 0x419 PUSH1 0x40 MLOAD DUP1 PUSH1 0x40 ADD PUSH1 0x40 MSTORE DUP1 PUSH1 0x1A DUP2 MSTORE PUSH1 0x20 ADD PUSH32 0x596F75207472616E73666572656420257320435420746F202573000000000000 DUP2 MSTORE POP DUP4 DUP6 PUSH2 0x888 JUMP JUMPDEST POP POP POP JUMP JUMPDEST PUSH0 PUSH1 0x2 SLOAD SWAP1 POP SWAP1 JUMP JUMPDEST PUSH0 DUP1 PUSH2 0x431 PUSH2 0x77F JUMP JUMPDEST SWAP1 POP PUSH2 0x43E DUP6 DUP3 DUP6 PUSH2 0x927 JUMP JUMPDEST PUSH2 0x449 DUP6 DUP6 DUP6 PUSH2 0x798 JUMP JUMPDEST PUSH1 0x1 SWAP2 POP POP SWAP4 SWAP3 POP POP POP JUMP JUMPDEST PUSH0 PUSH1 0x12 SWAP1 POP SWAP1 JUMP JUMPDEST PUSH0 DUP1 PUSH0 DUP4 PUSH20 0xFFFFFFFFFFFFFFFFFFFFFFFFFFFFFFFFFFFFFFFF AND PUSH20 0xFFFFFFFFFFFFFFFFFFFFFFFFFFFFFFFFFFFFFFFF AND DUP2 MSTORE PUSH1 0x20 ADD SWAP1 DUP2 MSTORE PUSH1 0x20 ADD PUSH0 KECCAK256 SLOAD SWAP1 POP SWAP2 SWAP1 POP JUMP JUMPDEST PUSH2 0x4AA PUSH2 0x9B9 JUMP JUMPDEST PUSH2 0x4B3 PUSH0 PUSH2 0xA37 JUMP JUMPDEST JUMP JUMPDEST PUSH0 PUSH2 0x4BE PUSH2 0x455 JUMP JUMPDEST PUSH1 0xFF AND PUSH1 0xA PUSH2 0x4CD SWAP2 SWAP1 PUSH2 0x1597 JUMP JUMPDEST DUP3 PUSH2 0x4D8 SWAP2 SWAP1 PUSH2 0x15E1 JUMP JUMPDEST SWAP1 POP PUSH2 0x4E4 CALLER DUP3 PUSH2 0xAFA JUMP JUMPDEST PUSH2 0x523 PUSH1 0x40 MLOAD DUP1 PUSH1 0x40 ADD PUSH1 0x40 MSTORE DUP1 PUSH1 0x15 DUP2 MSTORE PUSH1 0x20 ADD PUSH32 0x596F75206275726E656420257320746F6B656E732E0000000000000000000000 DUP2 MSTORE POP DUP4 PUSH2 0xB79 JUMP JUMPDEST POP POP JUMP JUMPDEST PUSH0 PUSH1 0x5 PUSH0 SWAP1 SLOAD SWAP1 PUSH2 0x100 EXP SWAP1 DIV PUSH20 0xFFFFFFFFFFFFFFFFFFFFFFFFFFFFFFFFFFFFFFFF AND SWAP1 POP SWAP1 JUMP JUMPDEST PUSH1 0x60 PUSH1 0x4 DUP1 SLOAD PUSH2 0x55E SWAP1 PUSH2 0x140B JUMP JUMPDEST DUP1 PUSH1 0x1F ADD PUSH1 0x20 DUP1 SWAP2 DIV MUL PUSH1 0x20 ADD PUSH1 0x40 MLOAD SWAP1 DUP2 ADD PUSH1 0x40 MSTORE DUP1 SWAP3 SWAP2 SWAP1 DUP2 DUP2 MSTORE PUSH1 0x20 ADD DUP3 DUP1 SLOAD PUSH2 0x58A SWAP1 PUSH2 0x140B JUMP JUMPDEST DUP1 ISZERO PUSH2 0x5D5 JUMPI DUP1 PUSH1 0x1F LT PUSH2 0x5AC JUMPI PUSH2 0x100 DUP1 DUP4 SLOAD DIV MUL DUP4 MSTORE SWAP2 PUSH1 0x20 ADD SWAP2 PUSH2 0x5D5 JUMP JUMPDEST DUP3 ADD SWAP2 SWAP1 PUSH0 MSTORE PUSH1 0x20 PUSH0 KECCAK256 SWAP1 JUMPDEST DUP2 SLOAD DUP2 MSTORE SWAP1 PUSH1 0x1 ADD SWAP1 PUSH1 0x20 ADD DUP1 DUP4 GT PUSH2 0x5B8 JUMPI DUP3 SWAP1 SUB PUSH1 0x1F AND DUP3 ADD SWAP2 JUMPDEST POP POP POP POP POP SWAP1 POP SWAP1 JUMP JUMPDEST PUSH0 DUP1 PUSH2 0x5E9 PUSH2 0x77F JUMP JUMPDEST SWAP1 POP PUSH2 0x5F6 DUP2 DUP6 DUP6 PUSH2 0x798 JUMP JUMPDEST PUSH1 0x1 SWAP2 POP POP SWAP3 SWAP2 POP POP JUMP JUMPDEST PUSH2 0x609 PUSH2 0x9B9 JUMP JUMPDEST PUSH0 PUSH2 0x612 PUSH2 0x455 JUMP JUMPDEST PUSH1 0xFF AND PUSH1 0xA PUSH2 0x621 SWAP2 SWAP1 PUSH2 0x1597 JUMP JUMPDEST DUP3 PUSH2 0x62C SWAP2 SWAP1 PUSH2 0x15E1 JUMP JUMPDEST SWAP1 POP PUSH2 0x638 CALLER DUP3 PUSH2 0xC15 JUMP JUMPDEST PUSH2 0x677 PUSH1 0x40 MLOAD DUP1 PUSH1 0x40 ADD PUSH1 0x40 MSTORE DUP1 PUSH1 0x14 DUP2 MSTORE PUSH1 0x20 ADD PUSH32 0x596F75206D696E74656420257320746F6B656E73000000000000000000000000 DUP2 MSTORE POP DUP4 PUSH2 0xB79 JUMP JUMPDEST POP POP JUMP JUMPDEST PUSH0 PUSH1 0x1 PUSH0 DUP5 PUSH20 0xFFFFFFFFFFFFFFFFFFFFFFFFFFFFFFFFFFFFFFFF AND PUSH20 0xFFFFFFFFFFFFFFFFFFFFFFFFFFFFFFFFFFFFFFFF AND DUP2 MSTORE PUSH1 0x20 ADD SWAP1 DUP2 MSTORE PUSH1 0x20 ADD PUSH0 KECCAK256 PUSH0 DUP4 PUSH20 0xFFFFFFFFFFFFFFFFFFFFFFFFFFFFFFFFFFFFFFFF AND PUSH20 0xFFFFFFFFFFFFFFFFFFFFFFFFFFFFFFFFFFFFFFFF AND DUP2 MSTORE PUSH1 0x20 ADD SWAP1 DUP2 MSTORE PUSH1 0x20 ADD PUSH0 KECCAK256 SLOAD SWAP1 POP SWAP3 SWAP2 POP POP JUMP JUMPDEST PUSH2 0x705 PUSH2 0x9B9 JUMP JUMPDEST PUSH0 PUSH20 0xFFFFFFFFFFFFFFFFFFFFFFFFFFFFFFFFFFFFFFFF AND DUP2 PUSH20 0xFFFFFFFFFFFFFFFFFFFFFFFFFFFFFFFFFFFFFFFF AND SUB PUSH2 0x773 JUMPI PUSH1 0x40 MLOAD PUSH32 0x8C379A000000000000000000000000000000000000000000000000000000000 DUP2 MSTORE PUSH1 0x4 ADD PUSH2 0x76A SWAP1 PUSH2 0x1692 JUMP JUMPDEST PUSH1 0x40 MLOAD DUP1 SWAP2 SUB SWAP1 REVERT JUMPDEST PUSH2 0x77C DUP2 PUSH2 0xA37 JUMP JUMPDEST POP JUMP JUMPDEST PUSH0 CALLER SWAP1 POP SWAP1 JUMP JUMPDEST PUSH2 0x793 DUP4 DUP4 DUP4 PUSH1 0x1 PUSH2 0xC94 JUMP JUMPDEST POP POP POP JUMP JUMPDEST PUSH0 PUSH20 0xFFFFFFFFFFFFFFFFFFFFFFFFFFFFFFFFFFFFFFFF AND DUP4 PUSH20 0xFFFFFFFFFFFFFFFFFFFFFFFFFFFFFFFFFFFFFFFF AND SUB PUSH2 0x808 JUMPI PUSH0 PUSH1 0x40 MLOAD PUSH32 0x96C6FD1E00000000000000000000000000000000000000000000000000000000 DUP2 MSTORE PUSH1 0x4 ADD PUSH2 0x7FF SWAP2 SWAP1 PUSH2 0x1387 JUMP JUMPDEST PUSH1 0x40 MLOAD DUP1 SWAP2 SUB SWAP1 REVERT JUMPDEST PUSH0 PUSH20 0xFFFFFFFFFFFFFFFFFFFFFFFFFFFFFFFFFFFFFFFF AND DUP3 PUSH20 0xFFFFFFFFFFFFFFFFFFFFFFFFFFFFFFFFFFFFFFFF AND SUB PUSH2 0x878 JUMPI PUSH0 PUSH1 0x40 MLOAD PUSH32 0xEC442F0500000000000000000000000000000000000000000000000000000000 DUP2 MSTORE PUSH1 0x4 ADD PUSH2 0x86F SWAP2 SWAP1 PUSH2 0x1387 JUMP JUMPDEST PUSH1 0x40 MLOAD DUP1 SWAP2 SUB SWAP1 REVERT JUMPDEST PUSH2 0x883 DUP4 DUP4 DUP4 PUSH2 0xE63 JUMP JUMPDEST POP POP POP JUMP JUMPDEST PUSH2 0x922 DUP4 DUP4 DUP4 PUSH1 0x40 MLOAD PUSH1 0x24 ADD PUSH2 0x8A0 SWAP4 SWAP3 SWAP2 SWAP1 PUSH2 0x16B0 JUMP JUMPDEST PUSH1 0x40 MLOAD PUSH1 0x20 DUP2 DUP4 SUB SUB DUP2 MSTORE SWAP1 PUSH1 0x40 MSTORE PUSH32 0x1C7EC44800000000000000000000000000000000000000000000000000000000 PUSH28 0xFFFFFFFFFFFFFFFFFFFFFFFFFFFFFFFFFFFFFFFFFFFFFFFFFFFFFFFF NOT AND PUSH1 0x20 DUP3 ADD DUP1 MLOAD PUSH28 0xFFFFFFFFFFFFFFFFFFFFFFFFFFFFFFFFFFFFFFFFFFFFFFFFFFFFFFFF DUP4 DUP2 DUP4 AND OR DUP4 MSTORE POP POP POP POP PUSH2 0x107C JUMP JUMPDEST POP POP POP JUMP JUMPDEST PUSH0 PUSH2 0x932 DUP5 DUP5 PUSH2 0x67B JUMP JUMPDEST SWAP1 POP PUSH32 0xFFFFFFFFFFFFFFFFFFFFFFFFFFFFFFFFFFFFFFFFFFFFFFFFFFFFFFFFFFFFFFFF DUP2 EQ PUSH2 0x9B3 JUMPI DUP2 DUP2 LT ISZERO PUSH2 0x9A4 JUMPI DUP3 DUP2 DUP4 PUSH1 0x40 MLOAD PUSH32 0xFB8F41B200000000000000000000000000000000000000000000000000000000 DUP2 MSTORE PUSH1 0x4 ADD PUSH2 0x99B SWAP4 SWAP3 SWAP2 SWAP1 PUSH2 0x16EC JUMP JUMPDEST PUSH1 0x40 MLOAD DUP1 SWAP2 SUB SWAP1 REVERT JUMPDEST PUSH2 0x9B2 DUP5 DUP5 DUP5 DUP5 SUB PUSH0 PUSH2 0xC94 JUMP JUMPDEST JUMPDEST POP POP POP POP JUMP JUMPDEST PUSH2 0x9C1 PUSH2 0x77F JUMP JUMPDEST PUSH20 0xFFFFFFFFFFFFFFFFFFFFFFFFFFFFFFFFFFFFFFFF AND PUSH2 0x9DF PUSH2 0x527 JUMP JUMPDEST PUSH20 0xFFFFFFFFFFFFFFFFFFFFFFFFFFFFFFFFFFFFFFFF AND EQ PUSH2 0xA35 JUMPI PUSH1 0x40 MLOAD PUSH32 0x8C379A000000000000000000000000000000000000000000000000000000000 DUP2 MSTORE PUSH1 0x4 ADD PUSH2 0xA2C SWAP1 PUSH2 0x176B JUMP JUMPDEST PUSH1 0x40 MLOAD DUP1 SWAP2 SUB SWAP1 REVERT JUMPDEST JUMP JUMPDEST PUSH0 PUSH1 0x5 PUSH0 SWAP1 SLOAD SWAP1 PUSH2 0x100 EXP SWAP1 DIV PUSH20 0xFFFFFFFFFFFFFFFFFFFFFFFFFFFFFFFFFFFFFFFF AND SWAP1 POP DUP2 PUSH1 0x5 PUSH0 PUSH2 0x100 EXP DUP2 SLOAD DUP2 PUSH20 0xFFFFFFFFFFFFFFFFFFFFFFFFFFFFFFFFFFFFFFFF MUL NOT AND SWAP1 DUP4 PUSH20 0xFFFFFFFFFFFFFFFFFFFFFFFFFFFFFFFFFFFFFFFF AND MUL OR SWAP1 SSTORE POP DUP2 PUSH20 0xFFFFFFFFFFFFFFFFFFFFFFFFFFFFFFFFFFFFFFFF AND DUP2 PUSH20 0xFFFFFFFFFFFFFFFFFFFFFFFFFFFFFFFFFFFFFFFF AND PUSH32 0x8BE0079C531659141344CD1FD0A4F28419497F9722A3DAAFE3B4186F6B6457E0 PUSH1 0x40 MLOAD PUSH1 0x40 MLOAD DUP1 SWAP2 SUB SWAP1 LOG3 POP POP JUMP JUMPDEST PUSH0 PUSH20 0xFFFFFFFFFFFFFFFFFFFFFFFFFFFFFFFFFFFFFFFF AND DUP3 PUSH20 0xFFFFFFFFFFFFFFFFFFFFFFFFFFFFFFFFFFFFFFFF AND SUB PUSH2 0xB6A JUMPI PUSH0 PUSH1 0x40 MLOAD PUSH32 0x96C6FD1E00000000000000000000000000000000000000000000000000000000 DUP2 MSTORE PUSH1 0x4 ADD PUSH2 0xB61 SWAP2 SWAP1 PUSH2 0x1387 JUMP JUMPDEST PUSH1 0x40 MLOAD DUP1 SWAP2 SUB SWAP1 REVERT JUMPDEST PUSH2 0xB75 DUP3 PUSH0 DUP4 PUSH2 0xE63 JUMP JUMPDEST POP POP JUMP JUMPDEST PUSH2 0xC11 DUP3 DUP3 PUSH1 0x40 MLOAD PUSH1 0x24 ADD PUSH2 0xB8F SWAP3 SWAP2 SWAP1 PUSH2 0x1789 JUMP JUMPDEST PUSH1 0x40 MLOAD PUSH1 0x20 DUP2 DUP4 SUB SUB DUP2 MSTORE SWAP1 PUSH1 0x40 MSTORE PUSH32 0xB60E72CC00000000000000000000000000000000000000000000000000000000 PUSH28 0xFFFFFFFFFFFFFFFFFFFFFFFFFFFFFFFFFFFFFFFFFFFFFFFFFFFFFFFF NOT AND PUSH1 0x20 DUP3 ADD DUP1 MLOAD PUSH28 0xFFFFFFFFFFFFFFFFFFFFFFFFFFFFFFFFFFFFFFFFFFFFFFFFFFFFFFFF DUP4 DUP2 DUP4 AND OR DUP4 MSTORE POP POP POP POP PUSH2 0x107C JUMP JUMPDEST POP POP JUMP JUMPDEST PUSH0 PUSH20 0xFFFFFFFFFFFFFFFFFFFFFFFFFFFFFFFFFFFFFFFF AND DUP3 PUSH20 0xFFFFFFFFFFFFFFFFFFFFFFFFFFFFFFFFFFFFFFFF AND SUB PUSH2 0xC85 JUMPI PUSH0 PUSH1 0x40 MLOAD PUSH32 0xEC442F0500000000000000000000000000000000000000000000000000000000 DUP2 MSTORE PUSH1 0x4 ADD PUSH2 0xC7C SWAP2 SWAP1 PUSH2 0x1387 JUMP JUMPDEST PUSH1 0x40 MLOAD DUP1 SWAP2 SUB SWAP1 REVERT JUMPDEST PUSH2 0xC90 PUSH0 DUP4 DUP4 PUSH2 0xE63 JUMP JUMPDEST POP POP JUMP JUMPDEST PUSH0 PUSH20 0xFFFFFFFFFFFFFFFFFFFFFFFFFFFFFFFFFFFFFFFF AND DUP5 PUSH20 0xFFFFFFFFFFFFFFFFFFFFFFFFFFFFFFFFFFFFFFFF AND SUB PUSH2 0xD04 JUMPI PUSH0 PUSH1 0x40 MLOAD PUSH32 0xE602DF0500000000000000000000000000000000000000000000000000000000 DUP2 MSTORE PUSH1 0x4 ADD PUSH2 0xCFB SWAP2 SWAP1 PUSH2 0x1387 JUMP JUMPDEST PUSH1 0x40 MLOAD DUP1 SWAP2 SUB SWAP1 REVERT JUMPDEST PUSH0 PUSH20 0xFFFFFFFFFFFFFFFFFFFFFFFFFFFFFFFFFFFFFFFF AND DUP4 PUSH20 0xFFFFFFFFFFFFFFFFFFFFFFFFFFFFFFFFFFFFFFFF AND SUB PUSH2 0xD74 JUMPI PUSH0 PUSH1 0x40 MLOAD PUSH32 0x94280D6200000000000000000000000000000000000000000000000000000000 DUP2 MSTORE PUSH1 0x4 ADD PUSH2 0xD6B SWAP2 SWAP1 PUSH2 0x1387 JUMP JUMPDEST PUSH1 0x40 MLOAD DUP1 SWAP2 SUB SWAP1 REVERT JUMPDEST DUP2 PUSH1 0x1 PUSH0 DUP7 PUSH20 0xFFFFFFFFFFFFFFFFFFFFFFFFFFFFFFFFFFFFFFFF AND PUSH20 0xFFFFFFFFFFFFFFFFFFFFFFFFFFFFFFFFFFFFFFFF AND DUP2 MSTORE PUSH1 0x20 ADD SWAP1 DUP2 MSTORE PUSH1 0x20 ADD PUSH0 KECCAK256 PUSH0 DUP6 PUSH20 0xFFFFFFFFFFFFFFFFFFFFFFFFFFFFFFFFFFFFFFFF AND PUSH20 0xFFFFFFFFFFFFFFFFFFFFFFFFFFFFFFFFFFFFFFFF AND DUP2 MSTORE PUSH1 0x20 ADD SWAP1 DUP2 MSTORE PUSH1 0x20 ADD PUSH0 KECCAK256 DUP2 SWAP1 SSTORE POP DUP1 ISZERO PUSH2 0xE5D JUMPI DUP3 PUSH20 0xFFFFFFFFFFFFFFFFFFFFFFFFFFFFFFFFFFFFFFFF AND DUP5 PUSH20 0xFFFFFFFFFFFFFFFFFFFFFFFFFFFFFFFFFFFFFFFF AND PUSH32 0x8C5BE1E5EBEC7D5BD14F71427D1E84F3DD0314C0F7B2291E5B200AC8C7C3B925 DUP5 PUSH1 0x40 MLOAD PUSH2 0xE54 SWAP2 SWAP1 PUSH2 0x1285 JUMP JUMPDEST PUSH1 0x40 MLOAD DUP1 SWAP2 SUB SWAP1 LOG3 JUMPDEST POP POP POP POP JUMP JUMPDEST PUSH0 PUSH20 0xFFFFFFFFFFFFFFFFFFFFFFFFFFFFFFFFFFFFFFFF AND DUP4 PUSH20 0xFFFFFFFFFFFFFFFFFFFFFFFFFFFFFFFFFFFFFFFF AND SUB PUSH2 0xEB3 JUMPI DUP1 PUSH1 0x2 PUSH0 DUP3 DUP3 SLOAD PUSH2 0xEA7 SWAP2 SWAP1 PUSH2 0x17B7 JUMP JUMPDEST SWAP3 POP POP DUP2 SWAP1 SSTORE POP PUSH2 0xF81 JUMP JUMPDEST PUSH0 DUP1 PUSH0 DUP6 PUSH20 0xFFFFFFFFFFFFFFFFFFFFFFFFFFFFFFFFFFFFFFFF AND PUSH20 0xFFFFFFFFFFFFFFFFFFFFFFFFFFFFFFFFFFFFFFFF AND DUP2 MSTORE PUSH1 0x20 ADD SWAP1 DUP2 MSTORE PUSH1 0x20 ADD PUSH0 KECCAK256 SLOAD SWAP1 POP DUP2 DUP2 LT ISZERO PUSH2 0xF3C JUMPI DUP4 DUP2 DUP4 PUSH1 0x40 MLOAD PUSH32 0xE450D38C00000000000000000000000000000000000000000000000000000000 DUP2 MSTORE PUSH1 0x4 ADD PUSH2 0xF33 SWAP4 SWAP3 SWAP2 SWAP1 PUSH2 0x16EC JUMP JUMPDEST PUSH1 0x40 MLOAD DUP1 SWAP2 SUB SWAP1 REVERT JUMPDEST DUP2 DUP2 SUB PUSH0 DUP1 DUP7 PUSH20 0xFFFFFFFFFFFFFFFFFFFFFFFFFFFFFFFFFFFFFFFF AND PUSH20 0xFFFFFFFFFFFFFFFFFFFFFFFFFFFFFFFFFFFFFFFF AND DUP2 MSTORE PUSH1 0x20 ADD SWAP1 DUP2 MSTORE PUSH1 0x20 ADD PUSH0 KECCAK256 DUP2 SWAP1 SSTORE POP POP JUMPDEST PUSH0 PUSH20 0xFFFFFFFFFFFFFFFFFFFFFFFFFFFFFFFFFFFFFFFF AND DUP3 PUSH20 0xFFFFFFFFFFFFFFFFFFFFFFFFFFFFFFFFFFFFFFFF AND SUB PUSH2 0xFC8 JUMPI DUP1 PUSH1 0x2 PUSH0 DUP3 DUP3 SLOAD SUB SWAP3 POP POP DUP2 SWAP1 SSTORE POP PUSH2 0x1012 JUMP JUMPDEST DUP1 PUSH0 DUP1 DUP5 PUSH20 0xFFFFFFFFFFFFFFFFFFFFFFFFFFFFFFFFFFFFFFFF AND PUSH20 0xFFFFFFFFFFFFFFFFFFFFFFFFFFFFFFFFFFFFFFFF AND DUP2 MSTORE PUSH1 0x20 ADD SWAP1 DUP2 MSTORE PUSH1 0x20 ADD PUSH0 KECCAK256 PUSH0 DUP3 DUP3 SLOAD ADD SWAP3 POP POP DUP2 SWAP1 SSTORE POP JUMPDEST DUP2 PUSH20 0xFFFFFFFFFFFFFFFFFFFFFFFFFFFFFFFFFFFFFFFF AND DUP4 PUSH20 0xFFFFFFFFFFFFFFFFFFFFFFFFFFFFFFFFFFFFFFFF AND PUSH32 0xDDF252AD1BE2C89B69C2B068FC378DAA952BA7F163C4A11628F55A4DF523B3EF DUP4 PUSH1 0x40 MLOAD PUSH2 0x106F SWAP2 SWAP1 PUSH2 0x1285 JUMP JUMPDEST PUSH1 0x40 MLOAD DUP1 SWAP2 SUB SWAP1 LOG3 POP POP POP JUMP JUMPDEST PUSH2 0x1093 DUP2 PUSH2 0x108B PUSH2 0x1096 PUSH2 0x10B5 JUMP JUMPDEST PUSH4 0xFFFFFFFF AND JUMP JUMPDEST POP JUMP JUMPDEST PUSH0 PUSH11 0x636F6E736F6C652E6C6F67 SWAP1 POP PUSH0 DUP1 DUP4 MLOAD PUSH1 0x20 DUP6 ADD DUP5 GAS STATICCALL POP POP POP JUMP JUMPDEST PUSH2 0x10C0 DUP2 SWAP1 POP SWAP2 SWAP1 POP JUMP JUMPDEST PUSH2 0x10C8 PUSH2 0x17EA JUMP JUMPDEST JUMP JUMPDEST PUSH0 DUP2 MLOAD SWAP1 POP SWAP2 SWAP1 POP JUMP JUMPDEST PUSH0 DUP3 DUP3 MSTORE PUSH1 0x20 DUP3 ADD SWAP1 POP SWAP3 SWAP2 POP POP JUMP JUMPDEST PUSH0 JUMPDEST DUP4 DUP2 LT ISZERO PUSH2 0x1101 JUMPI DUP1 DUP3 ADD MLOAD DUP2 DUP5 ADD MSTORE PUSH1 0x20 DUP2 ADD SWAP1 POP PUSH2 0x10E6 JUMP JUMPDEST PUSH0 DUP5 DUP5 ADD MSTORE POP POP POP POP JUMP JUMPDEST PUSH0 PUSH1 0x1F NOT PUSH1 0x1F DUP4 ADD AND SWAP1 POP SWAP2 SWAP1 POP JUMP JUMPDEST PUSH0 PUSH2 0x1126 DUP3 PUSH2 0x10CA JUMP JUMPDEST PUSH2 0x1130 DUP2 DUP6 PUSH2 0x10D4 JUMP JUMPDEST SWAP4 POP PUSH2 0x1140 DUP2 DUP6 PUSH1 0x20 DUP7 ADD PUSH2 0x10E4 JUMP JUMPDEST PUSH2 0x1149 DUP2 PUSH2 0x110C JUMP JUMPDEST DUP5 ADD SWAP2 POP POP SWAP3 SWAP2 POP POP JUMP JUMPDEST PUSH0 PUSH1 0x20 DUP3 ADD SWAP1 POP DUP2 DUP2 SUB PUSH0 DUP4 ADD MSTORE PUSH2 0x116C DUP2 DUP5 PUSH2 0x111C JUMP JUMPDEST SWAP1 POP SWAP3 SWAP2 POP POP JUMP JUMPDEST PUSH0 DUP1 REVERT JUMPDEST PUSH0 PUSH20 0xFFFFFFFFFFFFFFFFFFFFFFFFFFFFFFFFFFFFFFFF DUP3 AND SWAP1 POP SWAP2 SWAP1 POP JUMP JUMPDEST PUSH0 PUSH2 0x11A1 DUP3 PUSH2 0x1178 JUMP JUMPDEST SWAP1 POP SWAP2 SWAP1 POP JUMP JUMPDEST PUSH2 0x11B1 DUP2 PUSH2 0x1197 JUMP JUMPDEST DUP2 EQ PUSH2 0x11BB JUMPI PUSH0 DUP1 REVERT JUMPDEST POP JUMP JUMPDEST PUSH0 DUP2 CALLDATALOAD SWAP1 POP PUSH2 0x11CC DUP2 PUSH2 0x11A8 JUMP JUMPDEST SWAP3 SWAP2 POP POP JUMP JUMPDEST PUSH0 DUP2 SWAP1 POP SWAP2 SWAP1 POP JUMP JUMPDEST PUSH2 0x11E4 DUP2 PUSH2 0x11D2 JUMP JUMPDEST DUP2 EQ PUSH2 0x11EE JUMPI PUSH0 DUP1 REVERT JUMPDEST POP JUMP JUMPDEST PUSH0 DUP2 CALLDATALOAD SWAP1 POP PUSH2 0x11FF DUP2 PUSH2 0x11DB JUMP JUMPDEST SWAP3 SWAP2 POP POP JUMP JUMPDEST PUSH0 DUP1 PUSH1 0x40 DUP4 DUP6 SUB SLT ISZERO PUSH2 0x121B JUMPI PUSH2 0x121A PUSH2 0x1174 JUMP JUMPDEST JUMPDEST PUSH0 PUSH2 0x1228 DUP6 DUP3 DUP7 ADD PUSH2 0x11BE JUMP JUMPDEST SWAP3 POP POP PUSH1 0x20 PUSH2 0x1239 DUP6 DUP3 DUP7 ADD PUSH2 0x11F1 JUMP JUMPDEST SWAP2 POP POP SWAP3 POP SWAP3 SWAP1 POP JUMP JUMPDEST PUSH0 DUP2 ISZERO ISZERO SWAP1 POP SWAP2 SWAP1 POP JUMP JUMPDEST PUSH2 0x1257 DUP2 PUSH2 0x1243 JUMP JUMPDEST DUP3 MSTORE POP POP JUMP JUMPDEST PUSH0 PUSH1 0x20 DUP3 ADD SWAP1 POP PUSH2 0x1270 PUSH0 DUP4 ADD DUP5 PUSH2 0x124E JUMP JUMPDEST SWAP3 SWAP2 POP POP JUMP JUMPDEST PUSH2 0x127F DUP2 PUSH2 0x11D2 JUMP JUMPDEST DUP3 MSTORE POP POP JUMP JUMPDEST PUSH0 PUSH1 0x20 DUP3 ADD SWAP1 POP PUSH2 0x1298 PUSH0 DUP4 ADD DUP5 PUSH2 0x1276 JUMP JUMPDEST SWAP3 SWAP2 POP POP JUMP JUMPDEST PUSH0 DUP1 PUSH0 PUSH1 0x60 DUP5 DUP7 SUB SLT ISZERO PUSH2 0x12B5 JUMPI PUSH2 0x12B4 PUSH2 0x1174 JUMP JUMPDEST JUMPDEST PUSH0 PUSH2 0x12C2 DUP7 DUP3 DUP8 ADD PUSH2 0x11BE JUMP JUMPDEST SWAP4 POP POP PUSH1 0x20 PUSH2 0x12D3 DUP7 DUP3 DUP8 ADD PUSH2 0x11BE JUMP JUMPDEST SWAP3 POP POP PUSH1 0x40 PUSH2 0x12E4 DUP7 DUP3 DUP8 ADD PUSH2 0x11F1 JUMP JUMPDEST SWAP2 POP POP SWAP3 POP SWAP3 POP SWAP3 JUMP JUMPDEST PUSH0 PUSH1 0xFF DUP3 AND SWAP1 POP SWAP2 SWAP1 POP JUMP JUMPDEST PUSH2 0x1303 DUP2 PUSH2 0x12EE JUMP JUMPDEST DUP3 MSTORE POP POP JUMP JUMPDEST PUSH0 PUSH1 0x20 DUP3 ADD SWAP1 POP PUSH2 0x131C PUSH0 DUP4 ADD DUP5 PUSH2 0x12FA JUMP JUMPDEST SWAP3 SWAP2 POP POP JUMP JUMPDEST PUSH0 PUSH1 0x20 DUP3 DUP5 SUB SLT ISZERO PUSH2 0x1337 JUMPI PUSH2 0x1336 PUSH2 0x1174 JUMP JUMPDEST JUMPDEST PUSH0 PUSH2 0x1344 DUP5 DUP3 DUP6 ADD PUSH2 0x11BE JUMP JUMPDEST SWAP2 POP POP SWAP3 SWAP2 POP POP JUMP JUMPDEST PUSH0 PUSH1 0x20 DUP3 DUP5 SUB SLT ISZERO PUSH2 0x1362 JUMPI PUSH2 0x1361 PUSH2 0x1174 JUMP JUMPDEST JUMPDEST PUSH0 PUSH2 0x136F DUP5 DUP3 DUP6 ADD PUSH2 0x11F1 JUMP JUMPDEST SWAP2 POP POP SWAP3 SWAP2 POP POP JUMP JUMPDEST PUSH2 0x1381 DUP2 PUSH2 0x1197 JUMP JUMPDEST DUP3 MSTORE POP POP JUMP JUMPDEST PUSH0 PUSH1 0x20 DUP3 ADD SWAP1 POP PUSH2 0x139A PUSH0 DUP4 ADD DUP5 PUSH2 0x1378 JUMP JUMPDEST SWAP3 SWAP2 POP POP JUMP JUMPDEST PUSH0 DUP1 PUSH1 0x40 DUP4 DUP6 SUB SLT ISZERO PUSH2 0x13B6 JUMPI PUSH2 0x13B5 PUSH2 0x1174 JUMP JUMPDEST JUMPDEST PUSH0 PUSH2 0x13C3 DUP6 DUP3 DUP7 ADD PUSH2 0x11BE JUMP JUMPDEST SWAP3 POP POP PUSH1 0x20 PUSH2 0x13D4 DUP6 DUP3 DUP7 ADD PUSH2 0x11BE JUMP JUMPDEST SWAP2 POP POP SWAP3 POP SWAP3 SWAP1 POP JUMP JUMPDEST PUSH32 0x4E487B7100000000000000000000000000000000000000000000000000000000 PUSH0 MSTORE PUSH1 0x22 PUSH1 0x4 MSTORE PUSH1 0x24 PUSH0 REVERT JUMPDEST PUSH0 PUSH1 0x2 DUP3 DIV SWAP1 POP PUSH1 0x1 DUP3 AND DUP1 PUSH2 0x1422 JUMPI PUSH1 0x7F DUP3 AND SWAP2 POP JUMPDEST PUSH1 0x20 DUP3 LT DUP2 SUB PUSH2 0x1435 JUMPI PUSH2 0x1434 PUSH2 0x13DE JUMP JUMPDEST JUMPDEST POP SWAP2 SWAP1 POP JUMP JUMPDEST PUSH32 0x4E487B7100000000000000000000000000000000000000000000000000000000 PUSH0 MSTORE PUSH1 0x11 PUSH1 0x4 MSTORE PUSH1 0x24 PUSH0 REVERT JUMPDEST PUSH0 DUP2 PUSH1 0x1 SHR SWAP1 POP SWAP2 SWAP1 POP JUMP JUMPDEST PUSH0 DUP1 DUP3 SWAP2 POP DUP4 SWAP1 POP JUMPDEST PUSH1 0x1 DUP6 GT ISZERO PUSH2 0x14BD JUMPI DUP1 DUP7 DIV DUP2 GT ISZERO PUSH2 0x1499 JUMPI PUSH2 0x1498 PUSH2 0x143B JUMP JUMPDEST JUMPDEST PUSH1 0x1 DUP6 AND ISZERO PUSH2 0x14A8 JUMPI DUP1 DUP3 MUL SWAP2 POP JUMPDEST DUP1 DUP2 MUL SWAP1 POP PUSH2 0x14B6 DUP6 PUSH2 0x1468 JUMP JUMPDEST SWAP5 POP PUSH2 0x147D JUMP JUMPDEST SWAP5 POP SWAP5 SWAP3 POP POP POP JUMP JUMPDEST PUSH0 DUP3 PUSH2 0x14D5 JUMPI PUSH1 0x1 SWAP1 POP PUSH2 0x1590 JUMP JUMPDEST DUP2 PUSH2 0x14E2 JUMPI PUSH0 SWAP1 POP PUSH2 0x1590 JUMP JUMPDEST DUP2 PUSH1 0x1 DUP2 EQ PUSH2 0x14F8 JUMPI PUSH1 0x2 DUP2 EQ PUSH2 0x1502 JUMPI PUSH2 0x1531 JUMP JUMPDEST PUSH1 0x1 SWAP2 POP POP PUSH2 0x1590 JUMP JUMPDEST PUSH1 0xFF DUP5 GT ISZERO PUSH2 0x1514 JUMPI PUSH2 0x1513 PUSH2 0x143B JUMP JUMPDEST JUMPDEST DUP4 PUSH1 0x2 EXP SWAP2 POP DUP5 DUP3 GT ISZERO PUSH2 0x152B JUMPI PUSH2 0x152A PUSH2 0x143B JUMP JUMPDEST JUMPDEST POP PUSH2 0x1590 JUMP JUMPDEST POP PUSH1 0x20 DUP4 LT PUSH2 0x133 DUP4 LT AND PUSH1 0x4E DUP5 LT PUSH1 0xB DUP5 LT AND OR ISZERO PUSH2 0x1566 JUMPI DUP3 DUP3 EXP SWAP1 POP DUP4 DUP2 GT ISZERO PUSH2 0x1561 JUMPI PUSH2 0x1560 PUSH2 0x143B JUMP JUMPDEST JUMPDEST PUSH2 0x1590 JUMP JUMPDEST PUSH2 0x1573 DUP5 DUP5 DUP5 PUSH1 0x1 PUSH2 0x1474 JUMP JUMPDEST SWAP3 POP SWAP1 POP DUP2 DUP5 DIV DUP2 GT ISZERO PUSH2 0x158A JUMPI PUSH2 0x1589 PUSH2 0x143B JUMP JUMPDEST JUMPDEST DUP2 DUP2 MUL SWAP1 POP JUMPDEST SWAP4 SWAP3 POP POP POP JUMP JUMPDEST PUSH0 PUSH2 0x15A1 DUP3 PUSH2 0x11D2 JUMP JUMPDEST SWAP2 POP PUSH2 0x15AC DUP4 PUSH2 0x11D2 JUMP JUMPDEST SWAP3 POP PUSH2 0x15D9 PUSH32 0xFFFFFFFFFFFFFFFFFFFFFFFFFFFFFFFFFFFFFFFFFFFFFFFFFFFFFFFFFFFFFFFF DUP5 DUP5 PUSH2 0x14C6 JUMP JUMPDEST SWAP1 POP SWAP3 SWAP2 POP POP JUMP JUMPDEST PUSH0 PUSH2 0x15EB DUP3 PUSH2 0x11D2 JUMP JUMPDEST SWAP2 POP PUSH2 0x15F6 DUP4 PUSH2 0x11D2 JUMP JUMPDEST SWAP3 POP DUP3 DUP3 MUL PUSH2 0x1604 DUP2 PUSH2 0x11D2 JUMP JUMPDEST SWAP2 POP DUP3 DUP3 DIV DUP5 EQ DUP4 ISZERO OR PUSH2 0x161B JUMPI PUSH2 0x161A PUSH2 0x143B JUMP JUMPDEST JUMPDEST POP SWAP3 SWAP2 POP POP JUMP JUMPDEST PUSH32 0x4F776E61626C653A206E6577206F776E657220697320746865207A65726F2061 PUSH0 DUP3 ADD MSTORE PUSH32 0x6464726573730000000000000000000000000000000000000000000000000000 PUSH1 0x20 DUP3 ADD MSTORE POP JUMP JUMPDEST PUSH0 PUSH2 0x167C PUSH1 0x26 DUP4 PUSH2 0x10D4 JUMP JUMPDEST SWAP2 POP PUSH2 0x1687 DUP3 PUSH2 0x1622 JUMP JUMPDEST PUSH1 0x40 DUP3 ADD SWAP1 POP SWAP2 SWAP1 POP JUMP JUMPDEST PUSH0 PUSH1 0x20 DUP3 ADD SWAP1 POP DUP2 DUP2 SUB PUSH0 DUP4 ADD MSTORE PUSH2 0x16A9 DUP2 PUSH2 0x1670 JUMP JUMPDEST SWAP1 POP SWAP2 SWAP1 POP JUMP JUMPDEST PUSH0 PUSH1 0x60 DUP3 ADD SWAP1 POP DUP2 DUP2 SUB PUSH0 DUP4 ADD MSTORE PUSH2 0x16C8 DUP2 DUP7 PUSH2 0x111C JUMP JUMPDEST SWAP1 POP PUSH2 0x16D7 PUSH1 0x20 DUP4 ADD DUP6 PUSH2 0x1276 JUMP JUMPDEST PUSH2 0x16E4 PUSH1 0x40 DUP4 ADD DUP5 PUSH2 0x1378 JUMP JUMPDEST SWAP5 SWAP4 POP POP POP POP JUMP JUMPDEST PUSH0 PUSH1 0x60 DUP3 ADD SWAP1 POP PUSH2 0x16FF PUSH0 DUP4 ADD DUP7 PUSH2 0x1378 JUMP JUMPDEST PUSH2 0x170C PUSH1 0x20 DUP4 ADD DUP6 PUSH2 0x1276 JUMP JUMPDEST PUSH2 0x1719 PUSH1 0x40 DUP4 ADD DUP5 PUSH2 0x1276 JUMP JUMPDEST SWAP5 SWAP4 POP POP POP POP JUMP JUMPDEST PUSH32 0x4F776E61626C653A2063616C6C6572206973206E6F7420746865206F776E6572 PUSH0 DUP3 ADD MSTORE POP JUMP JUMPDEST PUSH0 PUSH2 0x1755 PUSH1 0x20 DUP4 PUSH2 0x10D4 JUMP JUMPDEST SWAP2 POP PUSH2 0x1760 DUP3 PUSH2 0x1721 JUMP JUMPDEST PUSH1 0x20 DUP3 ADD SWAP1 POP SWAP2 SWAP1 POP JUMP JUMPDEST PUSH0 PUSH1 0x20 DUP3 ADD SWAP1 POP DUP2 DUP2 SUB PUSH0 DUP4 ADD MSTORE PUSH2 0x1782 DUP2 PUSH2 0x1749 JUMP JUMPDEST SWAP1 POP SWAP2 SWAP1 POP JUMP JUMPDEST PUSH0 PUSH1 0x40 DUP3 ADD SWAP1 POP DUP2 DUP2 SUB PUSH0 DUP4 ADD MSTORE PUSH2 0x17A1 DUP2 DUP6 PUSH2 0x111C JUMP JUMPDEST SWAP1 POP PUSH2 0x17B0 PUSH1 0x20 DUP4 ADD DUP5 PUSH2 0x1276 JUMP JUMPDEST SWAP4 SWAP3 POP POP POP JUMP JUMPDEST PUSH0 PUSH2 0x17C1 DUP3 PUSH2 0x11D2 JUMP JUMPDEST SWAP2 POP PUSH2 0x17CC DUP4 PUSH2 0x11D2 JUMP JUMPDEST SWAP3 POP DUP3 DUP3 ADD SWAP1 POP DUP1 DUP3 GT ISZERO PUSH2 0x17E4 JUMPI PUSH2 0x17E3 PUSH2 0x143B JUMP JUMPDEST JUMPDEST SWAP3 SWAP2 POP POP JUMP JUMPDEST PUSH32 0x4E487B7100000000000000000000000000000000000000000000000000000000 PUSH0 MSTORE PUSH1 0x51 PUSH1 0x4 MSTORE PUSH1 0x24 PUSH0 REVERT INVALID LOG2 PUSH5 0x6970667358 0x22 SLT KECCAK256 SWAP4 DUP5 0xB4 DUP1 REVERT RETURNDATASIZE CODESIZE SSTORE JUMP 0xEF DUP6 0xBE PUSH1 0xC9 GT JUMPI DUP6 0x4A 0xF8 ISZERO JUMPDEST SSTORE MSTORE8 RETURNDATACOPY DUP7 SWAP3 SMOD ADD 0x49 LOG2 DUP4 0xF8 PUSH5 0x736F6C6343 STOP ADDMOD EQ STOP CALLER "
		},
		"gasEstimates": {
			"creation": {
				"codeDepositCost": "1244200",
				"executionCost": "infinite",
				"totalCost": "infinite"
			},
			"external": {
				"allowance(address,address)": "infinite",
				"approve(address,uint256)": "infinite",
				"balanceOf(address)": "2918",
				"burnToken(uint256)": "infinite",
				"decimals()": "405",
				"mintToken(uint256)": "infinite",
				"name()": "infinite",
				"owner()": "2582",
				"renounceOwnership()": "30413",
				"symbol()": "infinite",
				"totalSupply()": "2455",
				"transfer(address,uint256)": "infinite",
				"transferFrom(address,address,uint256)": "infinite",
				"transferOwnership(address)": "30819",
				"transferToken(address,uint256)": "infinite"
			}
		},
		"methodIdentifiers": {
			"allowance(address,address)": "dd62ed3e",
			"approve(address,uint256)": "095ea7b3",
			"balanceOf(address)": "70a08231",
			"burnToken(uint256)": "7b47ec1a",
			"decimals()": "313ce567",
			"mintToken(uint256)": "c634d032",
			"name()": "06fdde03",
			"owner()": "8da5cb5b",
			"renounceOwnership()": "715018a6",
			"symbol()": "95d89b41",
			"totalSupply()": "18160ddd",
			"transfer(address,uint256)": "a9059cbb",
			"transferFrom(address,address,uint256)": "23b872dd",
			"transferOwnership(address)": "f2fde38b",
			"transferToken(address,uint256)": "1072cbea"
		}
	},
	"abi": [
		{
			"inputs": [],
			"stateMutability": "nonpayable",
			"type": "constructor"
		},
		{
			"inputs": [
				{
					"internalType": "address",
					"name": "spender",
					"type": "address"
				},
				{
					"internalType": "uint256",
					"name": "allowance",
					"type": "uint256"
				},
				{
					"internalType": "uint256",
					"name": "needed",
					"type": "uint256"
				}
			],
			"name": "ERC20InsufficientAllowance",
			"type": "error"
		},
		{
			"inputs": [
				{
					"internalType": "address",
					"name": "sender",
					"type": "address"
				},
				{
					"internalType": "uint256",
					"name": "balance",
					"type": "uint256"
				},
				{
					"internalType": "uint256",
					"name": "needed",
					"type": "uint256"
				}
			],
			"name": "ERC20InsufficientBalance",
			"type": "error"
		},
		{
			"inputs": [
				{
					"internalType": "address",
					"name": "approver",
					"type": "address"
				}
			],
			"name": "ERC20InvalidApprover",
			"type": "error"
		},
		{
			"inputs": [
				{
					"internalType": "address",
					"name": "receiver",
					"type": "address"
				}
			],
			"name": "ERC20InvalidReceiver",
			"type": "error"
		},
		{
			"inputs": [
				{
					"internalType": "address",
					"name": "sender",
					"type": "address"
				}
			],
			"name": "ERC20InvalidSender",
			"type": "error"
		},
		{
			"inputs": [
				{
					"internalType": "address",
					"name": "spender",
					"type": "address"
				}
			],
			"name": "ERC20InvalidSpender",
			"type": "error"
		},
		{
			"anonymous": false,
			"inputs": [
				{
					"indexed": true,
					"internalType": "address",
					"name": "owner",
					"type": "address"
				},
				{
					"indexed": true,
					"internalType": "address",
					"name": "spender",
					"type": "address"
				},
				{
					"indexed": false,
					"internalType": "uint256",
					"name": "value",
					"type": "uint256"
				}
			],
			"name": "Approval",
			"type": "event"
		},
		{
			"anonymous": false,
			"inputs": [
				{
					"indexed": true,
					"internalType": "address",
					"name": "previousOwner",
					"type": "address"
				},
				{
					"indexed": true,
					"internalType": "address",
					"name": "newOwner",
					"type": "address"
				}
			],
			"name": "OwnershipTransferred",
			"type": "event"
		},
		{
			"anonymous": false,
			"inputs": [
				{
					"indexed": true,
					"internalType": "address",
					"name": "from",
					"type": "address"
				},
				{
					"indexed": true,
					"internalType": "address",
					"name": "to",
					"type": "address"
				},
				{
					"indexed": false,
					"internalType": "uint256",
					"name": "value",
					"type": "uint256"
				}
			],
			"name": "Transfer",
			"type": "event"
		},
		{
			"inputs": [
				{
					"internalType": "address",
					"name": "owner",
					"type": "address"
				},
				{
					"internalType": "address",
					"name": "spender",
					"type": "address"
				}
			],
			"name": "allowance",
			"outputs": [
				{
					"internalType": "uint256",
					"name": "",
					"type": "uint256"
				}
			],
			"stateMutability": "view",
			"type": "function"
		},
		{
			"inputs": [
				{
					"internalType": "address",
					"name": "spender",
					"type": "address"
				},
				{
					"internalType": "uint256",
					"name": "value",
					"type": "uint256"
				}
			],
			"name": "approve",
			"outputs": [
				{
					"internalType": "bool",
					"name": "",
					"type": "bool"
				}
			],
			"stateMutability": "nonpayable",
			"type": "function"
		},
		{
			"inputs": [
				{
					"internalType": "address",
					"name": "account",
					"type": "address"
				}
			],
			"name": "balanceOf",
			"outputs": [
				{
					"internalType": "uint256",
					"name": "",
					"type": "uint256"
				}
			],
			"stateMutability": "view",
			"type": "function"
		},
		{
			"inputs": [
				{
					"internalType": "uint256",
					"name": "amount",
					"type": "uint256"
				}
			],
			"name": "burnToken",
			"outputs": [],
			"stateMutability": "nonpayable",
			"type": "function"
		},
		{
			"inputs": [],
			"name": "decimals",
			"outputs": [
				{
					"internalType": "uint8",
					"name": "",
					"type": "uint8"
				}
			],
			"stateMutability": "view",
			"type": "function"
		},
		{
			"inputs": [
				{
					"internalType": "uint256",
					"name": "amount",
					"type": "uint256"
				}
			],
			"name": "mintToken",
			"outputs": [],
			"stateMutability": "nonpayable",
			"type": "function"
		},
		{
			"inputs": [],
			"name": "name",
			"outputs": [
				{
					"internalType": "string",
					"name": "",
					"type": "string"
				}
			],
			"stateMutability": "view",
			"type": "function"
		},
		{
			"inputs": [],
			"name": "owner",
			"outputs": [
				{
					"internalType": "address",
					"name": "",
					"type": "address"
				}
			],
			"stateMutability": "view",
			"type": "function"
		},
		{
			"inputs": [],
			"name": "renounceOwnership",
			"outputs": [],
			"stateMutability": "nonpayable",
			"type": "function"
		},
		{
			"inputs": [],
			"name": "symbol",
			"outputs": [
				{
					"internalType": "string",
					"name": "",
					"type": "string"
				}
			],
			"stateMutability": "view",
			"type": "function"
		},
		{
			"inputs": [],
			"name": "totalSupply",
			"outputs": [
				{
					"internalType": "uint256",
					"name": "",
					"type": "uint256"
				}
			],
			"stateMutability": "view",
			"type": "function"
		},
		{
			"inputs": [
				{
					"internalType": "address",
					"name": "to",
					"type": "address"
				},
				{
					"internalType": "uint256",
					"name": "value",
					"type": "uint256"
				}
			],
			"name": "transfer",
			"outputs": [
				{
					"internalType": "bool",
					"name": "",
					"type": "bool"
				}
			],
			"stateMutability": "nonpayable",
			"type": "function"
		},
		{
			"inputs": [
				{
					"internalType": "address",
					"name": "from",
					"type": "address"
				},
				{
					"internalType": "address",
					"name": "to",
					"type": "address"
				},
				{
					"internalType": "uint256",
					"name": "value",
					"type": "uint256"
				}
			],
			"name": "transferFrom",
			"outputs": [
				{
					"internalType": "bool",
					"name": "",
					"type": "bool"
				}
			],
			"stateMutability": "nonpayable",
			"type": "function"
		},
		{
			"inputs": [
				{
					"internalType": "address",
					"name": "newOwner",
					"type": "address"
				}
			],
			"name": "transferOwnership",
			"outputs": [],
			"stateMutability": "nonpayable",
			"type": "function"
		},
		{
			"inputs": [
				{
					"internalType": "address",
					"name": "recipient",
					"type": "address"
				},
				{
					"internalType": "uint256",
					"name": "amount",
					"type": "uint256"
				}
			],
			"name": "transferToken",
			"outputs": [],
			"stateMutability": "nonpayable",
			"type": "function"
		}
	]
}